:100000000C9457000C946F1A0C946F1A0C946F1A7E
:100010000C946F1A0C946F1A0C946F1A0C946F1A3C
:100020000C946F1A0C946F1A0C946F1A0C946F1A2C
:100030000C946F1A0C946F1A0C946F1A0C946F1A1C
:100040000C946F1A0C946F1A0C946F1A0C946F1A0C
:100050000C946F1A0C946F1A0C946F1A0C946F1AFC
:100060000C946F1A0C946F1A3B1145114F115911D2
:1000700063116D11771181118B11AE0FB80FC20F83
:10008000CC0FD60FE00FEA0FF40FFE0F081012107E
:100090000100010480010401220034EC0122012648
:1000A000800126012700350A01270129800011243B
:1000B0001FBECFEFD8E0DEBFCDBFE0E9F0E040E00B
:1000C00017C0B591A59135912591059107FD0CC0FB
:1000D00095918591EF01F92FE82F05900D92A217C8
:1000E000B307D9F7FE0104C01D92A217B307E1F7C9
:1000F000ED3AF40731F70E94CA090C94E219F8941A
:02010000FFCF2F
:100102000000000000000000002F000000000700B7
:10011200070000147F147F1400242A7F2A12006231
:1001220064081323003649552250000005030000DD
:1001320000001C224100000041221C000014083E65
:1001420008140008083E0808000000A0600000082B
:10015200080808080000606000000020100804027F
:10016200003E5149453E0000427F4000004261513D
:100172004946002141454B31001814127F100027D7
:1001820045454539003C4A4949300001710905039A
:1001920000364949493600064949291E00003636CB
:1001A200000000005636000000081422410000142E
:1001B200141414140000412214080002015109060B
:1001C20000324959513E007C1211127C007F49498C
:1001D2004936003E41414122007F4141221C007FBD
:1001E20049494941007F09090901003E4149497ACB
:1001F200007F0808087F0000417F41000020404145
:100202003F01007F08142241007F40404040007FB0
:10021200020C027F007F0408107F003E4141413EF4
:10022200007F09090906003E4151215E007F09193C
:1002320029460046494949310001017F0101003F39
:100242004040403F001F2040201F003F4038403FB9
:10025200006314081463000708700807006151491D
:10026200454300007F41410000552A552A550000B0
:1002720041417F000004020102040040404040402E
:10028200000001020400002054545478007F4844C6
:10029200443800384444442000384444487F0038FD
:1002A2005454541800087E0901020018A4A4A47C26
:1002B200007F080404780000447D400000408084F0
:1002C2007D00007F102844000000417F4000007C38
:1002D20004180478007C0804047800384444443844
:1002E20000FC242424180018242418FC007C080490
:1002F200040800485454542000043F444020003C69
:100302004040207C001C2040201C003C4030403CEF
:10031200004428102844001CA0A0A07C004464547F
:100322004C44000008774100000000630000000018
:1003320041770800000804080804003A4040207A87
:10034200003D4040403D002154545479007D12113B
:10035200127D003944444439003D4242423D00028C
:1003620005020000007E01495573007C1010081C34
:0C037200003048204830005C6202625CF1
:10037E003E49534F7C00202020417C0020202054F9
:10038E007C00204C55587C002049534F7C003E2069
:10039E0020417C003E2020547C0032322E30003131
:1003AE00362E300031312E3000382E302000352ED2
:1003BE00362000342E302000322E382000322E30DF
:1003CE002000312E342000312F3220202020003109
:1003DE002F342020202000312F38202020200031E3
:1003EE002F313520202000312F33302020200031B6
:1003FE002F363020202000312F3132352020003191
:10040E002F323530202000312F3530302020003172
:10041E002F313030302000312F323030302000314B
:10042E00363030003830302000343030200032305A
:10043E0030200031303020003530202000202020A8
:0B044E00202020202020200025670037
:10045900AE2000B0C8001040813FA1A6A83FA4D398
:0B04690000D5F0D922DA12DB208D1440
:10047400BC5F9C60A4618462B6639664B0659F6649
:08048400B5678968A969FFFF53
:10048C0068076C094C836A9074A07AC000806888F5
:06049C0000846C82008167
:1004A200494E4600696E66004E414E006E616E0016
:0604B200286E696C2900B0
:1004B800A3EAB0E0E2E6F2E00C94A4184C0159017A
:1004C800C756DF4F488359836A83C959D040212CC6
:1004D800312C6E012BE8C20ED11C85E2782E260144
:1004E80030E8632ECE018D569F4FC456DF4F998357
:1004F8008883CC59D0409C0140E8CF55DF4F2883F2
:1005080039834A83C15AD040C756DF4F4881C959F9
:10051800D040C656DF4F5881CA59D040C556DF4F24
:100528006881CB59D040FA01849167FD8081882386
:1005380009F4C9C3CF57DF4F19821882C158D04078
:100548008FEF9FEFCD57DF4F99838883C358D040F3
:10055800CB57DF4F19821882C558D040A1E0B0E0D0
:10056800AC0FBD1FC957DF4FB983A883C758D04008
:10057800E0E8F0E0C757DF4FF983E883C958D04077
:10058800CA01A62FE12CF12CFC012491A7FD2081A2
:1005980021111BC0E114F10401F19701C4010E946B
:1005A8009F16C756DF4F88819981AA81C959D040C3
:1005B8008E0D9F1DA11DF7FCAA95C756DF4F888396
:1005C8009983AA83C959D04008C00196A11D253234
:1005D80009F3FFEFEF1AFF0AD7CFC756DF4F88811D
:1005E8009981AA81C959D040FC012491A7FD208195
:1005F800253209F056C39C014A2F2F5F3F4F4F4FBA
:10060800C256DF4F288339834A83CE59D040C75614
:10061800DF4F288339834A83C959D040C756DF4FF3
:1006280088819981AA81C959D040FC012491A7FDEC
:1006380020812B3241F4CF57DF4F28813981C158AF
:10064800D04024600BC02C32CCF02D3259F5CF5756
:10065800DF4F28813981C158D0402160CF57DF4F03
:1006680039832883C158D0400196A11DC756DF4F52
:1006780088839983AA83C959D040D0CF203241F4C6
:10068800CF57DF4F28813981C158D0402860E6CF45
:10069800233291F4CF57DF4F28813981C158D04098
:1006A8002061DCCF203341F4CF57DF4F28813981D7
:1006B800C158D0402260D2CF2A3299F50196A11DA7
:1006C800C756DF4F88839983AA83C959D040D5017B
:1006D800ED91FC911197CF0102968D939C938081A7
:1006E8009181CB57DF4F99838883C558D04097FFB6
:1006F8003EC0CF57DF4F28813981C158D040B1E083
:100708002B27CF57DF4F39832883C158D040919585
:1007180081959109CB57DF4F99838883C558D0407D
:1007280026C0BC018A2F0E943D15CB57DF4F998305
:100738008883C558D040C756DF4F288139814A8100
:10074800C959D040F901849147FD8081082E000CD9
:10075800990BC0970A9758F42F5F3F4F4F4FC756D2
:10076800DF4F288339834A83C959D040E4CFCF5714
:10077800DF4F88819981C158D04080FF07C08D7FA5
:10078800CF57DF4F99838883C158D040C756DF4F72
:1007980088819981AA81C959D040FC012491A7FD7B
:1007A80020812E3209F058C0CD57DF4F19821882A8
:1007B800C358D0409C014A2F2F5F3F4F4F4FC75619
:1007C800DF4F288339834A83C959D040F9015491AE
:1007D80047FD50815A32D1F40296A11DC756DF4F0A
:1007E80088839983AA83C959D040D501ED91FC919A
:1007F8001197CF0102968D939C9380819181CD575B
:10080800DF4F99838883C358D04026C0842FB9010D
:100818000E943D15CD57DF4F99838883C358D04038
:10082800C756DF4F288139814A81C959D040F9011B
:10083800849147FD8081082E000C990BC0970A9778
:1008480058F42F5F3F4F4F4FC756DF4F28833983E8
:100858004A83C959D040E4CFCE0187569F4F0E94A2
:100868005914182FC756DF4F2881C959D040C6568A
:10087800DF4F8881CA59D040C556DF4F9881CB5980
:10088800D040E22FF82F849197FD8081082E000C2C
:10089800990B0E94071A8936910509F45AC0B4F4D5
:1008A8008336910509F466C144F48532910509F44B
:1008B800A1C18136910529F1B3C18436910509F4A6
:1008C80048C0883691050CF42DC1AAC1803791051E
:1008D80009F4CBC04CF48E36910509F419C18F3652
:1008E800910509F47CC09CC18537910509F454C071
:1008F8008837910509F496C08337910509F090C1AE
:1009080058C1612F70E0A501C6010E940E18892BFD
:1009180009F4B7C1C756DF4F88819981AA81C9599F
:10092800D0409C014A2F2F5F3F4F4F4FC756DF4F94
:10093800288339834A83C959D040FC012491A7FDF3
:100948002081A601BE016F577F4FC4010E94691A1A
:1009580095C1612F70E0950141E050E0C6010E9409
:10096800B50D892B09F48DC1C756DF4F8881998150
:10097800AA81C959D0400196A11DC756DF4F888367
:100988009983AA83C959D040A601BE016F577F4FEA
:10099800C4010E94661A72C1612F70E0950140E09F
:1009A80050E0C6010E94B50D892B09F46AC1C756EB
:1009B800DF4F88819981AA81C959D0400196A11D2C
:1009C800C756DF4F88839983AA83C959D040A601A7
:1009D800BE016F577F4FC4010E94661A4FC1612F35
:1009E80070E0950140E050E0C6010E94B50D892BEA
:1009F80009F447C1C756DF4F88819981AA81C9592F
:100A0800D0400196A11DC756DF4F88839983AA83DA
:100A1800C959D040A601BE016F577F4FC4010E943B
:100A2800661A2CC1612F70E0950140E050E0C601C4
:100A38000E94B50D892B09F424C1C756DF4F888160
:100A48009981AA81C959D0409C014A2F2F5F3F4FF5
:100A58004F4FC756DF4F288339834A83C959D0403F
:100A6800FC012491A7FD20814BC0950140E050E096
:100A780060EF70E0C6010E94B50D892B09F401C131
:100A8800C756DF4F88819981AA81C959D0400196FC
:100A9800A11DC756DF4F88839983AA83C959D040BF
:100AA80086E022EB34E040E0F901DE01AD56BF4FAD
:100AB800742F0E94A619D6012C9111963C9111977A
:100AC80012964C91129713965C91139714966C9109
:100AD800149715967C91159716968C9116971796DC
:100AE8009C91A0E00E94BF1951F400E010E0CF559E
:100AF800DF4F288139814A81C15AD040B9C028E7DF
:100B0800A601BE016F577F4FC4010E94691AB6C083
:100B1800612F70E09501A1014E0D5F1DC6010E9475
:100B28001A12AFC0612F70E0A501C6010E940E180D
:100B3800892B09F4A6C0C756DF4F88819981AA81FD
:100B4800C959D0409C014A2F2F5F3F4F4F4FC7567E
:100B5800DF4F288339834A83C959D040FC01249147
:100B6800A7FD2081A601BE016F577F4FC4010E94D7
:100B78006D0684C0103809F084C0C756DF4F8881DD
:100B88009981AA81C959D0400196A11DC756DF4F46
:100B980088839983AA83C959D040D501ED91FC91E6
:100BA8001197CF0102968D939C938081F6018083E3
:100BB8005BC0103809F065C0C756DF4F888199813E
:100BC800AA81C959D0400196A11DC756DF4F888315
:100BD8009983AA83C959D040D501ED91FC91119709
:100BE800CF0103968D939C9320813181428100E04F
:100BF80010E03EC0103809F044C0C756DF4F888166
:100C08009981AA81C959D0400196A11DC756DF4FC5
:100C180088839983AA83C959D040F601708224C079
:100C2800D6017C92C256DF4F288139814A81CE593C
:100C3800D040C756DF4F288339834A83C959D040EB
:100C4800CF57DF4F19821882C158D040CB57DF4F9A
:100C580019821882C558D0408FEF9FEFCD57DF4FCC
:100C680099838883C358D04001E010E0462D920153
:100C7800BE016F577F4FC4010E946C1A8E0D9F1DD5
:100C880011C0C756DF4F88819981AA81C959D040C0
:100C98000196A11DC756DF4F88839983AA83C95936
:100CA800D040C7017101E80EF91EE214F3044CF4B8
:100CB8008FE490E090930301809302018FEF9FEF00
:100CC80003C0170121CCC101CD55DF4FE2E10C94DF
:020CD800C01842
:100CDA00A6E2B0E0E3E7F6E00C94A4189F8F8E8FAB
:100CEA00798F688F122FFB010190F081E02DFA872E
:100CFA00E987FB01C280D380248135813C8B2B8B11
:100D0A008085918599A388A30680F781E02DFA83CF
:100D1A00E983FA0180809180A280B38020E030E0EC
:100D2A00A901C501B4010E94491A87FF06C0B7FA92
:100D3A00B094B7F8B0948DE204C0F985F2FF0CC301
:100D4A008BE2E981FA8180832B893C892150310920
:100D5A0038872F8341E050E05A8B498B06C08B8934
:100D6A009C8998878F831A8A198AD501C401BF770B
:100D7A000097E0E8AE07EFE7BE07D9F4212F110F7D
:100D8A00330B2154310989819A8149895A89840FFF
:100D9A00951F2A31310520F442EA54E060E003C08D
:100DAA0046EA54E060E00E94981966EA74E080E03E
:100DBA001EC00197A048BF4730F1212F110F330BF6
:100DCA002154310989819A8149895A89840F951F49
:100DDA002A31310520F44AEA54E060E003C04EEAC1
:100DEA0054E060E00E9498196EEA74E080E00E9484
:100DFA003619E981FA81AF0160E8E984FA840B893E
:100E0A001C899C01A1C220E030E0A901C501B401FE
:100E1A000E94491A1B821C82882309F467C0F0E8E1
:100E2A00FD832FE32E83212C312C20E030E040E299
:100E3A0051E46B817C818D819E810E945F1AF62E1E
:100E4A00072F8D879B87A50194010E944E1A1816B9
:100E5A0054F03FEF231A330AFB820C834D854D83EE
:100E6A005B855E83E2CF1C861B862B813C814D818C
:100E7A005E81C501B4010E94491A87FF3DC084ED15
:100E8A0028168EEF380604F5EB85FC85EF2BE1F486
:100E9A0020E030E040E85AE5C501B4010E945F1A3B
:100EAA004B015C0120E030E040E85AE56B817C812F
:100EBA008D819E810E945F1A6B837C838D839E83C2
:100ECA0021E030E03C872B8720E030E040E251E42B
:100EDA006B817C818D819E810E945B1A6B837C83EE
:100EEA008D839E8331E0231A3108BFCF40E84D83BA
:100EFA005FE35E83212C312C812F110F990B9BA369
:100F0A008AA30E94071A8B8FD7FC03C0DEA2CDA248
:100F1A0004C0E6E0F0E0FEA3EDA3FB8DF73641F452
:100F2A00CD2809F01EC221E030E03EA32DA319C24C
:100F3A008B8D8D8B04C037FE25C296E69D8BEDA165
:100F4A00FEA13196FEA3EDA3FD89F63699F437FE8C
:100F5A0008C01B821C8220E82D833FE33E83212C9C
:100F6A00312C4B8D473631F08DA19EA1820D931DF8
:100F7A009EA38DA39B819B87EC81ED87FD81FE8BD0
:100F8A002E812A8F750164011D8E1C8E8C8D9D8D7C
:100F9A00EDA1FEA18E179F07C1F12B853D854E89D4
:100FAA005A8DC701B6010E945B1A0E940C0F2B01D1
:100FBA003C010E94161A6CA38701760117FB109553
:100FCA0017F910952B853D854E895A8DC301B201BB
:100FDA000E946E0E6B017C01F7FAF094F7F8F09418
:100FEA0020E030E040E251E46B857D858E899A8D60
:100FFA000E945B1A6B877D878E8B9A8F4C8D5D8DD5
:10100A004F5F5F4F5D8F4C8FC1CF20E030E040EAE9
:10101A0050E46B857D858E899A8D0E945F1A2B011B
:10102A003C019B01AC01C701B6010E94491A87FD28
:10103A000BC0A3019201C701B6010E94491A81118E
:10104A0006C0FCA1F0FD03C0412C512C3201A301C2
:10105A009201C501B4010E94101A4B015C012D894D
:10106A00253611F0310102C0612C712C23014DA1EA
:10107A005EA1441A550AC988DA8800E010E01C8685
:10108A001B8689859A85807199279F8B8E8B64141C
:10109A00750431F48B859C85892B09F49AC0A6C006
:1010AA00DD8ECC8EE88DF98D808591850597C816E1
:1010BA00D90680F72B813C814D815E81C501B4013F
:1010CA000E945B1A0E940C0F6D877E878F87988B10
:1010DA000E94161ACB01EE89FF89EF2B69F4892B3E
:1010EA0059F4FB8DF73641F477FE06C098012F5F5D
:1010FA003F4F3D8F2C8F43C04B855C85452BB1F408
:10110A0077FE14C05FEFC51AD50AE981FA818C8D82
:10111A009D8DE80FF91F9EE29083EF81F885319744
:10112A00F887EF8321E030E03C872B87E981FA8159
:10113A00EC0DFD1D1D8F0C8F8C8D9D8D892B49F01B
:10114A0030E331934C8D5D8D415051095D8F4C8F49
:10115A00F3CFC8018C0D9D1D2F813885201B310BC3
:10116A006C01EFEFCE1ADE0AE981FA81E80FF91F66
:10117A00605D6083A9014150510958874F838501F9
:10118A00740117FB109517F910952B813C814D813D
:10119A005E816D857E858F8598890E946E0E4B01D2
:1011AA005C01B7FAB094B7F8B09420E030E040E2BE
:1011BA0051E46B817C818D819E810E945B1A6B83D5
:1011CA007C838D839E8351E0651A71080C8D1D8D79
:1011DA005ECFF985F4FF0AC0E981FA81EC0DFD1DA5
:1011EA008EE2808396012F5F3F4F690149815A81C0
:1011FA004C0D5D1D5C874B87FA011082FD89F5361F
:10120A0009F061C0E981FA8128A139A1E20FF31F2F
:10121A003197108237FE06C031942194310801E0DB
:10122A0010E002C000E010E0E8A1F9A1319749817D
:10123A005A81E40FF51F22E030E08AE0E82EF12C13
:10124A00CF0149815A81841B950B2114310479F00D
:10125A00C101B7010E944C19805D82931B01215084
:10126A0031098F819885019798878F83E9CF121664
:10127A00130674F3FC013197E40FF51F012B11F4E7
:10128A002BE201C02DE220830297E981FA81E80F5F
:10129A00F91F2AA13BA1215431092A31310510F045
:1012AA0025E601C025E420832F81388522503109A3
:1012BA0038872F83C816D90634F4AF0160E88B85C6
:1012CA009C850E94981949815A813A0180E8882EA2
:1012DA00998591FF2EC090FD2CC0EF81F8851E16CE
:1012EA001F063CF5882DB3010E94361929813A81DF
:1012FA00820F931F9C0149815A81241B350BE9896E
:10130A00FA892E173F074CF0FC012081EF81F885FE
:10131A00E80FF91F20830197EDCF4F81588560E3CD
:10132A0070E089819A818E0F9F1F0E94F6191C8A8C
:10133A001B8A882DB3010E943619E984FA840B8925
:10134A001C899C01682DA3018E8D9F8D0E943210ED
:10135A00A696E2E10C94C018598553FF00CD80E2AD
:10136A00F0CC2CEF22162FEF32064CF04DA15EA1E5
:10137A00241635060CF4DFCD55E65D8BFBCD35E63C
:0A138A003D8BF8CD46E64D8BF5CD06
:10139400CF93DF93CDB7DEB7A3970FB6F894DEBF34
:1013A4000FBECDBF8BB184608BB98BB188608BB914
:1013B4008BB180638BB98FEA0E94011681E090E0C3
:1013C4000E94B91084E090E00E94321187E090E01E
:1013D4000E94A50F82E090E00E94A81401E010E0B2
:1013E4006894EE24E1F8F12C0F2EF7E0AF2EB12C27
:1013F400F02D6894882482F8912C4A9911C0033006
:1014040011051CF40F5F1F4F02C000E010E0C8017B
:101414000E94B9108FE295E70197F1F700C0000030
:101424004B997FC10130110509F0D7C00E94B11357
:10143400462E572E682E792E8EE1E4E0F1E0DE018F
:10144400119601900D928A95E1F720E030E04DED80
:1014540056E4642D752D862D972D0E944E1A18166C
:101464000CF44FC020E030E0A901642D752D862DC9
:10147400972D0E94491A88230CF453C0B12C22C022
:10148400CB2CD12CCC0CDD1CE1E0F0E0EC0FFD1FEB
:10149400CE0EDF1EF60160817181072E000C880BD1
:1014A400990B0E94C615242D352D462D572D0E94CB
:1014B4000F1A0E94161ACB010E94321AF601918368
:1014C4008083B394FEE0FB15D8F629813A81A0E02D
:1014D40040E050E013C08A2F90E0FC01EE0FFF1FA4
:1014E40061E070E06C0F7D1FE60FF71F6081718172
:1014F4002617370714F09B01AC01AF5FAF3058F3E8
:101504001FC040E050E0412C0F2EFAEE5F2EF02D6C
:101514000F2EFBEF6F2EF02D0F2EF6E47F2EF02D05
:101524000FC040E050E0412C0F2EFAEE5F2EF02D5C
:101534000F2EFBEF6F2EF02D0F2EF6E47F2EF02DE5
:1015440025E030E0241B350B82E090E05C01AE180E
:10155400BF08C4010497A80EB91EA20EB31E77E0FB
:10156400A70EB11C8BE0A816B1041CF4BB204CF4EC
:1015740006C00F2EFAE0AF2EB12CF02D02C0A12C24
:10158400B12CC5010E94A50F67E08BE00E94FF19F2
:101594006BE474E080E00E940A1967E08BE00E942B
:1015A400FF197F926F925F924F9286E594E0A0E0DC
:1015B400AF939F938F936E019FE1C90ED11CDF926D
:1015C400CF920E947419B60180E80E940A190FB6DE
:1015D400F894DEBF0FBECDBFA4C00230110509F0E0
:1015E400A0C00E94B113462E572E782E692E8EE18C
:1015F400E4E0F1E0DE01119601900D928A95E1F7A5
:10160400912C22C0C92CD12CCC0CDD1C21E030E063
:101614002C0F3D1FC20ED31EF60160817181072E6F
:10162400000C880B990B0E94C615242D352D472DCF
:10163400562D0E940F1A0E94161ACB010E94321ACC
:10164400F601918380839394FEE0F915D8F62981FD
:101654003A81A0E040E050E013C08A2F90E0FC0102
:10166400EE0FFF1F61E070E06C0F7D1FE60FF71FA8
:10167400608171812617370714F09B01AC01AF5FBD
:10168400AF3058F385E090E0FC01E41BF50B82E0F9
:1016940090E08E199F0927E030E02A193B09820F58
:1016A400931F8E0F9F1F24E030E04901881A990A86
:1016B400F9E08F1691041CF4992044F405C0689451
:1016C400882483F8912C02C0812C912CC4010E949F
:1016D400321167E08BE00E94FF196BE474E080E054
:1016E4000E940A1967E08BE00E94FF196F927F92B3
:1016F4005F924F9286E594E0A0E0AF939F938F931F
:101704006E012FE1C20ED11CDF92CF920E94741998
:10171400B60180E80E940A190FB6F894DEBF0FBE26
:10172400CDBF0E94D7198F3F39F1813009F065CEC2
:101734000115110551F41E141F040CF05ECEC701EF
:1017440001977C010E94A81458CE0130110551F470
:10175400181419040CF051CEC40101974C010E94D5
:1017640032114BCE1A141B040CF047CEC50101975D
:101774005C010E94A50F41CE0115110559F475E0D5
:10178400E716F1040CF039CEC70101967C010E94E2
:10179400A81433CE0130110559F488E08816910459
:1017A4000CF02BCEC40101964C010E94321125CEBF
:1017B4009AE0A916B1040CF020CEC50101965C0193
:0617C4000E94A50F1ACEE1
:1017CA00CF92DF92EF92FF920F931F93CF93DF9303
:1017DA00CDB7DEB76D970FB6F894DEBF0FBECDBF9B
:1017EA00893001F118F4883039F052C08A30E9F1B1
:1017FA008D3009F447C04CC002E211E0F801808143
:10180A00909126016181891B0E94FF1980E20E9442
:10181A00E50BF8018081909126016181891B0E9464
:10182A00FF198FC18091220190912601292F30E062
:10183A00220F331F220F331FB901680F711D45E1B3
:10184A0050E08A01021B130B6017710740F4990FCD
:10185A00990F60912301890F0E94FF1972C160914B
:10186A00230185E10E94FF196CC180912301873011
:10187A0008F067C160912601680F809122010E94D9
:10188A00FF195FC16091230180E00E94FF1959C1CD
:10189A00A0912201AA3708F054C1803208F451C13C
:1018AA00805225E734E040E0F90124918217C8F418
:1018BA0032C0440F551F9A0140E02C583B4F4F4FFE
:1018CA00642FA901FA01449150E040525109682F4E
:1018DA0070E04617570719F4F801849119C09F5F01
:1018EA0001C090E0492F50E06A01CC0CDD1CFFEFEB
:1018FA00CF1ADF0AE12C2E2D86010C581B4F2F4FD1
:10190A006801E22E8601F60164916F3F91F68FEF2E
:10191A008F3F09F416C190912601923009F0E2C076
:10192A00B0E01C96A138B10508F00BC110E057C011
:10193A00612F70E0FB01EE0FFF1F21E030E02C0F5A
:10194A003D1FE20FF31F15861486282F30E0690128
:10195A00CC0CDD1CC20ED31ECC0CDD1CC60ED71E51
:10196A00960140E02E5F3E4F4F4FF901C49090E040
:10197A0033C0E92FF0E02C2D30E0092E02C0359556
:10198A0027950A94E2F720FF26C0EE0FFF1F21E0F9
:10199A0030E079010E2E02C0EE0CFF1C0A94E2F729
:1019AA00DB01AA0FBB1F41E050E04C0F5D1FA40FE3
:1019BA00B51F1C964D915C911D974E295F29319652
:1019CA0002C0220F331FEA95E2F7242B352B1D960E
:1019DA003C932E931C979F5F983058F21F5F1630E6
:1019EA0008F4A6CF20E015C0822F90E0880F991F37
:1019FA00E1E0F0E0EC0FFD1FE80FF91F34853083BA
:101A0A000196E1E0F0E0EC0FFD1FE80FF91F3083CB
:101A1A002F5F263048F36CE070E0CE0101960E94F9
:101A2A008317E2E2F1E081818F54898F81E28A8F04
:101A3A00808192E0980F9F709B8F90E00296807F42
:101A4A0099279595879595958795959587959595D0
:101A5A008795805F8C8F8FE78D8F65E0CE014996E1
:101A6A000E942E1820E015C0822F90E0880F991F3F
:101A7A00E1E0F0E0EC0FFD1FE80FF91F3585308338
:101A8A000196E1E0F0E0EC0FFD1FE80FF91F30834B
:101A9A002F5F263048F36CE070E0CE0101960E9479
:101AAA00831702E211E0F80181818055898F8081D4
:101ABA009EE0980F9F709B8F90E00E96807F9927EB
:101ACA00929582958F7089279F708927805F8C8F66
:101ADA0065E0CE0149960E942E18F8018081845F44
:101AEA0080832FC0B0E01696A138B10550F590E07A
:101AFA001BC0482F50E0292F30E0BA01660F771F2C
:101B0A00460F571F440F551F420F531F60E04E5F89
:101B1A005E4F6F4FFA014491E1E0F0E0EC0FFD1FD8
:101B2A00E20FF31F40839F5F963018F366E070E080
:101B3A00CE0101960E948317E2E2F1E080818A5F7A
:101B4A0080836D960FB6F894DEBF0FBECDBFDF91CE
:101B5A00CF911F910F91FF90EF90DF90CF90089552
:101B6A000F931F93CF93DF93FC01D9016838710556
:101B7A0031F194F461387105B1F12CF460387105D2
:101B8A0009F478C09FC06238710509F459C06438F5
:101B9A00710509F46FC096C0603A710509F448C02E
:101BAA002CF46039710509F44BC08CC0603C710596
:101BBA0009F476C0603F710509F472C083C0CD9103
:101BCA00DC911197CE0102968D939C93452B39F0A7
:101BDA009881892F880F880B908381835BC08881C5
:101BEA008083118268C0CD91DC911197CE01049651
:101BFA008D939C93452B99F088819981AA81BB8109
:101C0A00AC01BD01770F440B542FBA018083918335
:101C1A00A283B383448345834683478328C00881CC
:101C2A0019812A813B81008311832283338345C032
:101C3A00CD91DC911197CE0102968D939C9323C08E
:101C4A00CD91DC911197CE0108968D939C93788162
:101C5A0069815A814B813C812D819E818F8170835C
:101C6A00618352834383348325839683878381E008
:101C7A0090E02AC0CD91DC911197CE0102968D9306
:101C8A009C93452BA1F099812881892F880F880B75
:101C9A002083918382838383848385838683E6CFAB
:101CAA00CD91DC911197CE0102968D939C93088178
:101CBA00198100831183128213821482158216827B
:101CCA001782D5CF80E090E0DF91CF911F910F91DD
:021CDA0008956B
:101CDC00A5E1B0E0E4E7FEE00C94A418470158013C
:101CEC000E945F1A2B013C01A80197010E94101A57
:101CFC00162FC72ED82EF92E862F9C2DAD2DBF2D2D
:101D0C0089839A83AB83BC83AA81FB81EC81ED80B0
:101D1C003E802F8008850D8B5E2F5F71212F3A2F0F
:101D2C004F2F60E070E080E090E021153105410517
:101D3C0000E15007610571058105910509F05EC050
:101D4C005E2F6E2D732D822D9D8904E30E946C18DD
:101D5C002D873E874F87588B698B7A8B8B8B9C8B0F
:101D6C008D859E8597708F3F974009F447C0A301DE
:101D7C009201612F7C2D8D2D9F2D0E940F1A9B019E
:101D8C00AC01C501B4010E94491A8823B9F14986F6
:101D9C005A866B867C8629853A854B855C85C50180
:101DAC00B4010E94101AB62E872E982EA92E262F1B
:101DBC00372F482F592F612F7C2D8D2D9F2D0E9451
:101DCC00491A811118C02B2D8B2D982DA92DBA2DA8
:101DDC0089839A83AB83BC833A814B815C816E2D62
:101DEC00732D822D9D89A1E00E94CB19122FC32E39
:101DFC00D42EF52E03C01B2D6401FA2C612F7C2DE3
:0C1E0C008D2D9F2D6596E2E10C94C0180E
:101E18004F925F926F927F928F929F92AF92BF92F2
:101E2800CF92DF92EF92FF92CF93DF93CDB7DEB7D9
:101E380028970FB6F894DEBF0FBECDBF6B017C01AB
:101E4800DC01CB0147E1B695A795979587954A950B
:101E5800D1F799278F579109873191059CF597FDFF
:101E680036C088248A94982C3FE7A32EB12C04C04E
:101E7800B594A794979487948A95D2F7D501C4010D
:101E88008C219D21AE21BF21892B8A2B8B2BD1F050
:101E980020E030E040E85BE7C701B6010E94101A75
:101EA8006D837E838F839887F7FE04C0C80CD91C86
:101EB800EA1CFB1C80949094A094B094C820D9206C
:101EC800EA20FB205C2D4D2D3E2D2F2D21C020E03A
:101ED80030E040E85BE7C701B6010E94101A698349
:101EE8007A838B839C83F7FE0FC0D701C601880FC6
:101EF800991FAA1FBB1F892B8A2B8B2B19F350E024
:101F080040E030E82FEB04C050E040E030E020E053
:101F1800652F742F832F922F28960FB6F894DEBF63
:101F28000FBECDBFDF91CF91FF90EF90DF90CF90A4
:101F3800BF90AF909F908F907F906F905F904F90E1
:021F48000895FA
:101F4A008B30910508F073C0FC01E35CFF4F0C94E1
:101F5A003E1A64E08BE00E94FF1965ED73E080E0B1
:101F6A000E940A19089564E08BE00E94FF196DED42
:101F7A0073E080E00E940A19089564E08BE00E94F1
:101F8A00FF1965EE73E080E00E940A19089564E083
:101F9A008BE00E94FF196DEE73E080E00E940A193F
:101FAA00089564E08BE00E94FF1965EF73E080E01A
:101FBA000E940A19089564E08BE00E94FF196DEFF0
:101FCA0073E080E00E940A19089564E08BE00E94A1
:101FDA00FF1965E074E080E00E940A19089564E040
:101FEA008BE00E94FF196DE074E080E00E940A19FC
:101FFA00089564E08BE00E94FF1965E174E080E0D7
:10200A000E940A19089564E08BE00E94FF196DE1AD
:10201A0074E080E00E940A19089564E08BE00E944F
:10202A00FF1965E274E080E00E940A1908950B978F
:10203A0054F064E08BE00E94FF1965E274E080E0EE
:10204A000E940A19089564E08BE00E94FF1965ED69
:0A205A0073E080E00E940A19089567
:102064002F923F924F926F927F928F92AF92BF9234
:10207400CF92DF92EF92FF920F931F93CF93DF9350
:10208400CDB7DEB766970FB6F894DEBF0FBECDBFEF
:102094005C013A01862E6901C701817099279C8BE6
:1020A4008B8BE0FC1DC020173107D4F47801EC18A9
:1020B400FD08FE8AED8AA70191E1E916F10410F00A
:1020C40040E150E060E270E0CE0101969A8B898B8A
:1020D4000E94F61989899A891C0120E8422E0BC0B6
:1020E4009601682DA301C5010E949F16C016D10652
:1020F400ECF2C60125C090E1E916F10458F020E1A4
:1021040030E0642DA101C5010E949F1680E1E81A08
:10211400F108F1CF2D893E892F70332789899A8957
:10212400AC0160E8C5010E949F168B899C89892BAC
:1021340031F49601682DA301C5010E949F16C801C0
:1021440066960FB6F894DEBF0FBECDBFDF91CF9178
:102154001F910F91FF90EF90DF90CF90BF90AF90C1
:0E2164008F907F906F904F903F902F90089536
:102172008130910561F18230910509F44DC0892BBE
:1021820009F06EC060E080E00E94FF196EE773E024
:1021920080E00E940A1962E080E00E94FF1964E870
:1021A20073E080E00E940A1964E080E00E94FF1957
:1021B2006AE873E080E00E940A1967E080E00E940A
:1021C200FF1960E973E080E00E940A19089560E057
:1021D20080E00E94FF1966E973E080E00E940A191C
:1021E20062E080E00E94FF196CE973E080E00E94E7
:1021F2000A1964E080E00E94FF196AE873E080E057
:102202000E940A1967E080E00E94FF1960E973E00A
:1022120080E00E940A19089560E080E00E94FF19A0
:1022220066E973E080E00E940A1962E080E00E94A1
:10223200FF1964E873E080E00E940A1964E080E01C
:102242000E94FF1962EA73E080E00E940A1967E0C7
:1022520080E00E94FF1960E973E080E00E940A19A1
:022262000895DD
:102264008930910508F05FC0FC01EC5CFF4F0C94D1
:102274003E1A62E08BE00E94FF1968EA73E080E096
:102284000E940A19089562E08BE00E94FF196DEA2A
:1022940073E080E00E940A19089562E08BE00E94D6
:1022A400FF1962EB73E080E00E940A19089562E06E
:1022B4008BE00E94FF1967EB73E080E00E940A192B
:1022C400089562E08BE00E94FF196CEB73E080E0FC
:1022D4000E940A19089562E08BE00E94FF1961ECE4
:1022E40073E080E00E940A19089562E08BE00E9486
:1022F400FF1966EC73E080E00E940A19089562E019
:102304008BE00E94FF196BEC73E080E00E940A19D5
:10231400089562E08BE00E94FF1960ED73E080E0B5
:102324000E940A190895099754F062E08BE00E9414
:10233400FF1960ED73E080E00E940A19089562E0DD
:102344008BE00E94FF1968EA73E080E00E940A199A
:022354000895EA
:1023560010C00E94241A58F00E941D1A40F029F459
:102366005F3F29F00C94381A51110C942C1A0C94D6
:10237600631A0E94CB1768F39923B1F3552391F39F
:10238600951B550BBB27AA2762177307840738F0DE
:102396009F5F5F4F220F331F441FAA1FA9F335D03B
:1023A6000E2E3AF0E0E832D091505040E695001CEF
:1023B600CAF72BD0FE2F29D0660F771F881FBB1FA9
:1023C600261737074807AB07B0E809F0BB0B802D87
:1023D600BF01FF2793585F4F3AF09E3F510578F0B3
:1023E6000C94381A0C942C1A5F3FE4F3983ED4F3FD
:1023F600869577956795B795F7959F5FC9F7880F87
:10240600911D9695879597F90895E1E0660F771FD8
:10241600881FBB1F621773078407BA0720F0621B69
:0E242600730B840BBA0BEE1F88F7E095089538
:10243400CF93DF93DC01F90164387105D9F164F4B9
:102444006138710521F16238710509F440C06038C2
:10245400710509F054C02EC060397105C1F184F4CE
:102464006838710509F04BC0C081D181CE01029654
:1024740091838083E881F981ED93FC9340833CC090
:10248400603A7105B9F0603C7105A1F038C0C081B3
:10249400D181CE01029691838083E881F981ED9305
:1024A400FC93052E000C660B770B408351836283EB
:1024B400738322C0C081D181CE010296918380832F
:1024C400E881F981ED93FC935183408315C0C08169
:1024D400D181CE01029691838083E881F981ED93C5
:1024E400FC9351834083852F880F880B82838383D9
:1024F400848385838683878381E090E002C080E0C3
:0825040090E0DF91CF910895F2
:10250C000FC00E941D1A38F00E94241A20F0952347
:10251C0011F00C94381A0C94631A11240C942C1A84
:10252C000E94CB1770F3959FC1F3950F50E0551F88
:10253C00629FF001729FBB27F00DB11D639FAA270C
:10254C00F00DB11DAA1F649F6627B00DA11D661F5B
:10255C00829F2227B00DA11D621F739FB00DA11D7C
:10256C00621F839FA00D611D221F749F3327A00D36
:10257C00611D231F849F600D211D822F762F6A2FD2
:10258C0011249F5750409AF0F1F088234AF0EE0F37
:10259C00FF1FBB1F661F771F881F91505040A9F764
:1025AC009E3F510580F00C94381A0C942C1A5F3F06
:1025BC00E4F3983ED4F3869577956795B795F795A0
:1025CC00E7959F5FC1F7FE2B880F911D9695879518
:0425DC0097F90895CE
:1025E00011C00E941D1A38F00E94241A20F039F4FC
:1025F0009F3F19F426F40C94631A0EF4E095E7FB60
:102600000C94381AE92F0E94CB1758F3BA176207B7
:1026100073078407950720F079F4A6F50C942B1A1C
:102620000EF4E0950B2EBA2FA02D0B01B9019001ED
:102630000C01CA01A0011124FF27591B99F0593F31
:1026400050F4503E68F11A16F040A22F232F342F79
:102650004427585FF3CF469537952795A795F040C7
:102660005395C9F77EF41F16BA0B620B730B840BDC
:10267000BAF09150A1F0FF0FBB1F661F771F881F94
:10268000C2F70EC0BA0F621F731F841F48F48795EC
:1026900077956795B795F7959E3F08F0B0CF9395DE
:0E26A000880F08F09927EE0F979587950895FB
:1026AE0083B190912801282F292724FF0DC0209156
:1026BE002401211109C028EC209324019F7E282F8C
:1026CE002071922B9093280190912801282F292771
:1026DE0025FF0CC020912501211108C028EC209364
:1026EE0025019F7D8072892B8093280180E040E038
:1026FE000FC0282F30E0F901EC5DFE4F9081992339
:10270E0031F0F901EC5DFE4F9150908341E08F5F07
:10271E00823078F3442331F08FEC97E00197F1F794
:10272E0000C000004C9B02C090E001C093E04D99A8
:10273E0002C081E0982780912701891B80FF09C084
:10274E0090932701827090910101890F815080939F
:04275E0001010895D8
:10276200CF93DF9300D00F92CDB7DEB780E289839B
:102772008AE08A838B8361E082E00E94ED1720E089
:1027820041E0BE016F5F7F4F83E20E943616892BC4
:1027920051F52FE789EA93E0215080409040E1F71C
:1027A20000C0000042E0BE016E5F7F4F83E20E94E4
:1027B2008515892BE9F46A8170E0762F66278B8173
:1027C200680F711D072E000C880B990B0E94C6150D
:1027D2002AE939E949E95FE30E945B1A562F472F3C
:1027E200382F292F09C05AE949E936EF22E404C0FB
:1027F2005DEC4CE830EA23E4652F742F832F922F8F
:0C2802000F900F900F90DF91CF91089580
:10280E006F927F928F92EF92FF920F931F93CF93BF
:10281E00DF93CDB7DEB761970FB6F894DEBF0FBE6C
:10282E00CDBFFE01319651E1DF011D925A95E9F7B8
:10283E00A2E0B1E0BA83A9839C838B8377FF09C0A2
:10284E008FE490E090930301809302018FEF9FEF4E
:10285E0019C03901842E7C01615071097F836E830A
:10286E009801682DA301CF010E94DB184885598578
:10287E002E813F814217530708F49A01F701E20FA8
:10288E00F31F108261960FB6F894DEBF0FBECDBF58
:10289E00DF91CF911F910F91FF90EF908F907F90CE
:0428AE006F9008958A
:1028B200CF92DF92EF92DC0190E0292F30E0220FDD
:1028C200331F6901032E000CEE086E2DA60144573A
:1028D2005B4F6F4F6A01E62EFA018491E7FC80811B
:1028E20081110DC02F5F3F4F032E000C440B245764
:1028F2003B4F4F4FF901849147FD808124C0CD9019
:10290200DD90EC901297F6014491E7FC408184132C
:1029120015C02F5F3F4F032E000C440B24573B4F33
:102922004F4FF901949147FD90815FEFC51AD50A87
:10293200E50ACD92DD92EC92129701C09F5F9B3027
:0E29420008F4BBCF892FEF90DF90CF9008955F
:102950008230910509F12CF4009751F0019791F024
:1029600008958430910561F10CF1059799F108956E
:1029700060E08BE00E94FF196DE274E080E00E944D
:102980000A19089560E08BE00E94FF1962E374E089
:1029900080E00E940A19089560E08BE00E94FF1910
:1029A00067E374E080E00E940A19089560E08BE01C
:1029B0000E94FF196CE374E080E00E940A190895F8
:1029C00060E08BE00E94FF1961E474E080E00E9407
:1029D0000A19089560E08BE00E94FF1966E474E034
:0829E00080E00E940A1908952D
:1029E8000F931F93CF93DF93DB012D913C911197A8
:1029F80030FF25C017964D915C91189715962D912B
:102A08003C9116974217530778F41296ED91FC9172
:102A18001397808312962D913C9113972F5F3F4F08
:102A280013963C932E93129717962D913C911897D5
:102A38002F5F3F4F18963C932E93179715C01D96FE
:102A4800ED91FC911E97309719F48FEF9FEF0CC012
:102A58008B01EC010995892BC1F7F80187819085D5
:102A6800019690878783CE01DF91CF911F910F91B7
:022A78000895BF
:102A7A00CF939B01482FF901849147FD80818032D1
:102A8A00C9F1682F082E000C770B6950710965305F
:102A9A00710580F18B3249F5A0E0B0E02F5F3F4F1E
:102AAA004F4F02C0A0E0B0E080E090E0CAE0F90138
:102ABA00649147FD6081062E000C770B6053710903
:102ACA006A30710560F4C89FF001C99FF00D1124A6
:102ADA002F5F3F4F4F4FCF01861B970BE8CFAB2B92
:102AEA0069F491958195910909C08D32D9F6A1E0D1
:102AFA00B0E0D4CF2F5F3F4F4F4FBDCFCF91089556
:102B0A00CF92DF92FF920F931F93CF93DF93C82F39
:102B1A008B01F42E0E9488189C01009739F58C2F9E
:102B2A0090E0880F991F81600E944C180097F9F471
:102B3A00C0E0D0E009C06801CC0EDD1E81E00E9431
:102B4A005E17F601808321968F2D90E00197C817B2
:102B5A00D9078CF3EC01C00FD11F80E00E945E17E9
:102B6A0088830E94571A80E090E001C0932FDF917A
:0E2B7A00CF911F910F91FF90DF90CF900895A3
:102B8800E89409C097FB3EF49095809570956195FF
:102B98007F4F8F4F9F4F9923A9F0F92F96E9BB27B5
:102BA8009395F695879577956795B795F111F8CF31
:102BB800FAF4BB0F11F460FF1BC06F5F7F4F8F4F9C
:102BC8009F4F16C0882311F096E911C0772321F092
:102BD8009EE8872F762F05C0662371F096E8862F2A
:102BE80070E060E02AF09A95660F771F881FDAF781
:0A2BF800880F9695879597F90895C8
:102C02001F93CF93DF93CDB7DEB76C970FB6F894CF
:102C1200DEBF0FBECDBF182F0E94ED1940E011C0DC
:102C2200242F30E0C901A0E0875A9B4FAF4FFC012F
:102C32008491E1E0F0E0EC0FFD1FE20FF31F8083CF
:102C42004F5F4B3168F31C8F6CE1CE0101960E94FD
:102C52002E180E94D3166C960FB6F894DEBF0FBEE4
:0A2C6200CDBFDF91CF911F910895BF
:102C6C00EF92FF920F931F93CF93DF93C82F7B01AB
:102C7C00142F022F0E948818009701F58C2F880FB3
:102C8C000E944C180097D1F4C0E0D0E009C0F701C5
:102C9C00EC0FFD1F80810E942019009779F421967A
:102CAC00812F90E0C817D90794F3011105C00E9439
:102CBC00571A80E090E002C080E090E0DF91CF9165
:0A2CCC001F910F91FF90EF90089503
:102CD600CF93DF9300D000D00F92CDB7DEB7813807
:102CE60018F5683008F5E2E2F1E08083618360550B
:102CF600698391E29A8392E0980F9F709B8390E09C
:102D06000296807F992795958795959587959595B0
:102D1600879595958795805F8C838FE78D8365E092
:102D2600CE0101960E942E180F900F900F900F90D3
:082D36000F90DF91CF91089589
:102D3E006F927F928F92CF92DF92EF920F931F93AB
:102D4E00CF93DF938C016A01E62EE9013A01862EBC
:102D5E00620E731E811C37FD8A94C614D704E804D4
:102D6E0079F0F6018491E7FC8081B801082E000C01
:102D7E00990B0E94F4148FEFC81AD80AE80AEDCF07
:102D8E00CE01DF91CF911F910F91EF90DF90CF90F9
:082D9E008F907F906F90089563
:102DA6001F93CF93DF93CDB7DEB7C058D1090FB6C7
:102DB600F894DEBF0FBECDBFFE01319680E8DF017D
:102DC6001D928A95E9F710E00BC0612F80E00E9402
:102DD600FF1960E870E0CE0101960E9483171F5F1D
:102DE600183098F30E94441AC058DF4F0FB6F89473
:0E2DF600DEBF0FBECDBFDF91CF911F910895BC
:102E04000E94D31788F09F5798F0B92F9927B7518C
:102E1400B0F0E1F0660F771F881F991F1AF0BA957A
:102E2400C9F714C0B13091F00E942B1AB1E0089593
:102E34000C942B1A672F782F8827B85F39F0B93F85
:102E4400CCF3869577956795B395D9F73EF490952D
:0E2E54008095709561957F4F8F4F9F4F089529
:102E620094EA9093BC0020EA30E009C02150310975
:102E720031F4809100018160809300010895909166
:102E8200BC0099231CF02115310581F78093BB000A
:102E920084E88093BC0080EA90E008C0019731F496
:102EA2008091000182608093000108952091BC000E
:0A2EB200222314F0009791F7089511
:102EBC00882381F084EC8093BC008091BC00882333
:102ECC00E4F78091B900887F8035A1F08091B9003A
:102EDC00887F089584E88093BC008091BC0088238F
:102EEC00E4F78091B900887F883521F08091B90092
:0A2EFC00887F08958091BB000895BF
:102F0600EF92FF920F931F93CF93DF937C018B0178
:102F160088E70E94311780E40E94F318C0E0D0E0F1
:102F260007C0F701EC0FFD1F80810E94F318219660
:102F3600C017D107B0F30E94531ADF91CF911F91AA
:082F46000F91FF90EF90089538
:102F4E00990F0008550FAA0BE0E8FEEF16161706AC
:102F5E00E807F907C0F012161306E407F50798F014
:102F6E00621B730B840B950B39F40A2661F0232B2D
:102F7E00242B252B21F408950A2609F4A140A695A9
:082F8E008FEF811D811D0895E4
:102F960057FD9058440F551F59F05F3F71F0479504
:102FA600880F97FB991F61F09F3F79F087950895E9
:102FB600121613061406551FF2CF4695F1DF08C008
:102FC600161617061806991FF1CF86957105610525
:042FD60008940895BE
:102FDA0097B1906397B9662321F098B1906398B935
:102FEA0003C098B19F7C98B997B19F7C97B98130FB
:102FFA0041F018F0823049F0089588E48093B800CF
:10300A00089588E18093B80008958CE08093B80011
:02301A00089517
:10301C00FA0160387105CCF0623871051CF0633828
:10302C00710599F4A081B1819D012C5F3F4F3183D3
:10303C0020834D915D916D917C91FC014083518376
:10304C006283738381E090E0089580E090E00895BE
:10305C000F931F93CF93DF938C01D62F88E70E9499
:10306C00311780E00E94F318C0E007C0F801EC0FA4
:10307C00F11D80810E94F318CF5FCD17B8F30E9429
:0C308C00531ADF91CF911F910F9108950E
:103098008093BB0084E88093BC008091BC008823A7
:1030A800E4F78091B900887F883151F08091B900A8
:1030B800887F803441F08091B900887F90E008953E
:0C30C80080E090E0089580E090E0089522
:1030D40097FB10F8169400080F93083098F00850E6
:1030E400232F342F452F562F672F782F892F902D7C
:1030F400F4CF059497958795779567955795479558
:0C310400379527950A95AAF70F910895BA
:1031100084EA8093BC008091BC008823E4F780910E
:10312000B900887F883051F08091B900887F803164
:1031300041F08091B900887F90E0089580E090E0B0
:08314000089580E090E008957D
:103148002F923F924F925F926F927F928F929F92AF
:10315800AF92BF92CF92DF92EF92FF920F931F939D
:10316800CF93DF93CDB7DEB7CA1BDB0B0FB6F8944E
:08317800DEBF0FBECDBF0994BC
:103180002A88398848885F846E847D848C849B84F7
:10319000AA84B984C884DF80EE80FD800C811B8105
:1031A000AA81B981CE0FD11D0FB6F894DEBF0FBE34
:0631B000CDBFED01089502
:1031B600A2E0B0E0E1EEF8E10C94B2188C013A839B
:1031C60029839E012F5F3F4F0E945C02F8012081F8
:1031D60024FF02C08FEF9FEF2296E4E00C94CE18F6
:1031E6008093BB0084E88093BC0080EA90E008C02E
:1031F600019731F480910001846080930001089565
:0E3206002091BC00222314F0009791F7089548
:10321400CF92DF92EF926B01E82E06C09FEFC91A9E
:10322400D90AE90A0E94E50BF6018491E7FC808142
:0C3234008111F4CFEF90DF90CF9008954F
:103240008093BB0084E88093BC008091BC008823FD
:10325000E4F78091B900887F883229F08091B90025
:0C326000887F90E0089580E090E00895E1
:10326C00CF92DF92EF926B01E82EA82FCB01FC01DD
:10327C002491A7FD2081222319F00196A11DF7CFDF
:0C328C008C199D09EF90DF90CF90089501
:1032980097FB072E16F4009407D077FD09D00E94FB
:1032A800601907FC05D03EF4909581959F4F0895CD
:0832B800709561957F4F0895A8
:1032C000AA1BBB1B51E107C0AA1FBB1FA617B7074C
:1032D00010F0A61BB70B881F991F5A95A9F7809568
:0832E0009095BC01CD01089599
:1032E800A0E0B0E0EAE7F9E10C94B4189E01265F8B
:1032F8003F4F4F81588569858D819E810E94B31902
:06330800E2E00C94D01875
:10330E00092E0394000C11F4882352F0BB0F40F4E5
:10331E00BF2B11F460FF04C06F5F7F4F8F4F9F4F25
:02332E00089500
:103330009A01462FDC01F901549147FD50815D93BC
:0C3340002F5F3F4F4F4F5111F6CF089503
:10334C00992777FD05C005900D920197E1F7089537
:0A335C0001900D920197E1F708952A
:103366000F931F9389019A01462F6FEF7FE70E9403
:0833760007141F910F91089547
:10337E000024A7FD00942A1730054005500560056E
:08338E0070058005900508950B
:103396000024A7FD00942A0F301D401D501D601DFE
:0833A600701D801D901D0895AB
:1033AE000E94571380910101982F93709093010101
:0633BE0085958595089538
:1033C400EC010E94741A0E94731ACE010E94751AAD
:0633D400CE010E94711AF7
:1033DA001092B90080E28093B80084E08093BC0028
:0233EA00089544
:1033EC00FC01480F591FE417F50711F06193FBCF4F
:0233FC00089532
:1033FE00982F990F980F892F880F0E946B1608959A
:10340E009C01215431092A31310508F48062089556
:0E341E005058BB27AA270E94F0120C94871961
:0E342C000E9402176894B1110C942C1A089596
:0E343A0000240A9416161706180609060895AF
:0E34480000240A9412161306140605060895B1
:0E345600E894BB2766277727CB0197F90895E6
:0C34640099231CF491958195910908951D
:0C34700097F99F6780E870E060E0089525
:0C347C00EE0FFF1F0590F491E02D099465
:0A34880060E080E00E94FF19089543
:0A3492000E94A71708F481E00895D6
:0A349C000E94A71708F48FEF0895AF
:0834A60084E98093BC00089545
:0834AE0084E98093BC0008953D
:0834B6000E94AB110C94871970
:0834BE000E9486120C9487198C
:0634C6009FEF80EC089569
:0634CC0080E090E008958D
:0634D20080E090E0089587
:0634D80080E090E0089581
:0434DE000C9400004A
:0434E2000E947F00C5
:0234E600089547
:0234E800089545
:0234EA00089543
:1034EC00806E4037A01BD00DE8067403BA01DD00D6
:0E34FC006E0037001B000D00080004000200E7
:01350A0001BF
:00000001FF
