:100000000C9451000C94A1180C94A1180C94A118F4
:100010000C94A1180C94A1180C94A1180C94A1187C
:100020000C94A1180C94A1180C94A1180C94A1186C
:100030000C94A1180C94A1180C94A1180C94A1185C
:100040000C94A1180C94A1180C94A1180C94A1184C
:100050000C94A1180C94A1180C94A1180C94A1183C
:100060000C94A1180C94A118130F1D0F270F310F1A
:100070003B0F450F4F0F590F630FFF0D090E130E66
:100080001D0E270E310E3B0E450E4F0E590E630E00
:100090000100010880010801090031500109010B2C
:1000A000800011241FBECFEFD8E0DEBFCDBFE0E956
:1000B000F0E040E017C0B591A591359125910591EB
:1000C00007FD0CC095918591EF01F92FE82F059060
:1000D0000D92A217B307D9F7FE0104C01D92A21713
:1000E000B307E1F7E13AF40731F70E94670D0C948A
:0600F0001018F894FFCF88
:1000F6000000000000000000002F000000000700C4
:10010600070000147F147F1400242A7F2A1200623D
:1001160064081323003649552250000005030000E9
:1001260000001C224100000041221C000014083E71
:1001360008140008083E0808000000A06000000837
:10014600080808080000606000000020100804028B
:10015600003E5149453E0000427F40000042615149
:100166004946002141454B31001814127F100027E3
:1001760045454539003C4A494930000171090503A6
:1001860000364949493600064949291E00003636D7
:10019600000000005636000000081422410000143A
:1001A6001414141400004122140800020151090617
:1001B60000324959513E007C1211127C007F494998
:1001C6004936003E41414122007F4141221C007FC9
:1001D60049494941007F09090901003E4149497AD7
:1001E600007F0808087F0000417F41000020404151
:1001F6003F01007F08142241007F40404040007FBD
:10020600020C027F007F0408107F003E4141413E00
:10021600007F09090906003E4151215E007F091948
:1002260029460046494949310001017F0101003F45
:100236004040403F001F2040201F003F4038403FC5
:100246000063140814630007087008070061514929
:10025600454300007F41410000552A552A550000BC
:1002660041417F000004020102040040404040403A
:10027600000001020400002054545478007F4844D2
:10028600443800384444442000384444487F003809
:100296005454541800087E0901020018A4A4A47C32
:1002A600007F080404780000447D400000408084FC
:1002B6007D00007F102844000000417F4000007C44
:1002C60004180478007C0804047800384444443850
:1002D60000FC242424180018242418FC007C08049C
:1002E600040800485454542000043F444020003C75
:1002F6004040207C001C2040201C003C4030403CFC
:10030600004428102844001CA0A0A07C004464548B
:100316004C44000008774100000000630000000024
:1003260041770800000804080804003A4040207A93
:10033600003D4040403D002154545479007D121147
:10034600127D003944444439003D4242423D000298
:1003560005020000007E01495573007C1010081C40
:0C036600003048204830005C6202625CFD
:100372003E49534F7C002020417C002020547C00C9
:100382002049534F7C003E20417C003E20547C009B
:1003920032322E300031362E300031312E300038DC
:1003A2002E3000352E3600342E3000322E380032F8
:1003B2002E3000312E3400312F3200312F340031F3
:1003C2002F3800312F313500312F333000312F36A5
:1003D2003000312F31323500312F32353000312F9C
:1003E20035303000312F3130303000312F32303063
:1003F20030003136303000383030003430300032A6
:10040200303000313030003530002567002D002BB0
:0104120000E9
:10041300AE2000B0C8001040813FA1A6A83FA4D3DE
:0B04230000D5F0D922DA12DB208D1486
:10042E00BC5F9C60A4618462B6639664B0659F668F
:08043E00B5678968A969FFFF99
:1004460068076C094C836A9074A07AC0008068883B
:0604560000846C820081AD
:10045C00494E4600696E66004E414E006E616E005C
:06046C00286E696C2900F6
:10047200A3EAB0E0EFE3F2E00C94DD164C0159017F
:10048200C756DF4F488359836A83C959D040212C0C
:10049200312C6E012BE8C20ED11C85E2782E26018A
:1004A20030E8632ECE018D569F4FC456DF4F99839D
:1004B2008883CC59D0409C0140E8CF55DF4F288338
:1004C20039834A83C15AD040C756DF4F4881C95940
:1004D200D040C656DF4F5881CA59D040C556DF4F6B
:1004E2006881CB59D040FA01849167FD80818823CD
:1004F20009F4C9C3CF57DF4F19821882C158D040BF
:100502008FEF9FEFCD57DF4F99838883C358D04039
:10051200CB57DF4F19821882C558D040A1E0B0E016
:10052200AC0FBD1FC957DF4FB983A883C758D0404E
:10053200E0E8F0E0C757DF4FF983E883C958D040BD
:10054200CA01A62FE12CF12CFC012491A7FD2081E8
:1005520021111BC0E114F10401F19701C4010E94B1
:10056200D814C756DF4F88819981AA81C959D040D2
:100572008E0D9F1DA11DF7FCAA95C756DF4F8883DC
:100582009983AA83C959D04008C00196A11D25327A
:1005920009F3FFEFEF1AFF0AD7CFC756DF4F888163
:1005A2009981AA81C959D040FC012491A7FD2081DB
:1005B200253209F056C39C014A2F2F5F3F4F4F4F00
:1005C200C256DF4F288339834A83CE59D040C7565B
:1005D200DF4F288339834A83C959D040C756DF4F3A
:1005E20088819981AA81C959D040FC012491A7FD33
:1005F20020812B3241F4CF57DF4F28813981C158F6
:10060200D04024600BC02C32CCF02D3259F5CF579C
:10061200DF4F28813981C158D0402160CF57DF4F49
:1006220039832883C158D0400196A11DC756DF4F98
:1006320088839983AA83C959D040D0CF203241F40C
:10064200CF57DF4F28813981C158D0402860E6CF8B
:10065200233291F4CF57DF4F28813981C158D040DE
:100662002061DCCF203341F4CF57DF4F288139811D
:10067200C158D0402260D2CF2A3299F50196A11DED
:10068200C756DF4F88839983AA83C959D040D501C1
:10069200ED91FC911197CF0102968D939C938081ED
:1006A2009181CB57DF4F99838883C558D04097FFFC
:1006B2003EC0CF57DF4F28813981C158D040B1E0C9
:1006C2002B27CF57DF4F39832883C158D0409195CC
:1006D20081959109CB57DF4F99838883C558D040C4
:1006E20026C0BC018A2F0E947613CB57DF4F998315
:1006F2008883C558D040C756DF4F288139814A8147
:10070200C959D040F901849147FD8081082E000C1F
:10071200990BC0970A9758F42F5F3F4F4F4FC75618
:10072200DF4F288339834A83C959D040E4CFCF575A
:10073200DF4F88819981C158D04080FF07C08D7FEB
:10074200CF57DF4F99838883C158D040C756DF4FB8
:1007520088819981AA81C959D040FC012491A7FDC1
:1007620020812E3209F058C0CD57DF4F19821882EE
:10077200C358D0409C014A2F2F5F3F4F4F4FC7565F
:10078200DF4F288339834A83C959D040F9015491F4
:1007920047FD50815A32D1F40296A11DC756DF4F50
:1007A20088839983AA83C959D040D501ED91FC91E0
:1007B2001197CF0102968D939C9380819181CD57A1
:1007C200DF4F99838883C358D04026C0842FB90154
:1007D2000E947613CD57DF4F99838883C358D04048
:1007E200C756DF4F288139814A81C959D040F90162
:1007F200849147FD8081082E000C990BC0970A97BF
:1008020058F42F5F3F4F4F4FC756DF4F288339832E
:100812004A83C959D040E4CFCE0187569F4F0E94E8
:100822009212182FC756DF4F2881C959D040C65699
:10083200DF4F8881CA59D040C556DF4F9881CB59C6
:10084200D040E22FF82F849197FD8081082E000C72
:10085200990B0E943F188936910509F45AC0B4F4E5
:100862008336910509F466C144F48532910509F491
:10087200A1C18136910529F1B3C18436910509F4EC
:1008820048C0883691050CF42DC1AAC18037910564
:1008920009F4CBC04CF48E36910509F419C18F3698
:1008A200910509F47CC09CC18537910509F454C0B7
:1008B2008837910509F496C08337910509F090C1F4
:1008C20058C1612F70E0A501C6010E944716892B0D
:1008D20009F4B7C1C756DF4F88819981AA81C959E6
:1008E200D0409C014A2F2F5F3F4F4F4FC756DF4FDB
:1008F200288339834A83C959D040FC012491A7FD3A
:100902002081A601BE016F577F4FC4010E949B1830
:1009120095C1612F70E0950141E050E0C6010E944F
:10092200770B892B09F48DC1C756DF4F88819981D6
:10093200AA81C959D0400196A11DC756DF4F8883AD
:100942009983AA83C959D040A601BE016F577F4F30
:10095200C4010E94981872C1612F70E0950140E0B5
:1009620050E0C6010E94770B892B09F46AC1C75671
:10097200DF4F88819981AA81C959D0400196A11D72
:10098200C756DF4F88839983AA83C959D040A601ED
:10099200BE016F577F4FC4010E9498184FC1612F4B
:1009A20070E0950140E050E0C6010E94770B892B70
:1009B20009F447C1C756DF4F88819981AA81C95975
:1009C200D0400196A11DC756DF4F88839983AA8321
:1009D200C959D040A601BE016F577F4FC4010E9482
:1009E20098182CC1612F70E0950140E050E0C601DB
:1009F2000E94770B892B09F424C1C756DF4F8881E7
:100A02009981AA81C959D0409C014A2F2F5F3F4F3B
:100A12004F4FC756DF4F288339834A83C959D04085
:100A2200FC012491A7FD20814BC0950140E050E0DC
:100A320060EF70E0C6010E94770B892B09F401C1B7
:100A4200C756DF4F88819981AA81C959D040019642
:100A5200A11DC756DF4F88839983AA83C959D04005
:100A620086E02CE634E040E0F901DE01AD56BF4FEE
:100A7200742F0E94DF17D6012C9111963C91119789
:100A820012964C91129713965C91139714966C914F
:100A9200149715967C91159716968C911697179622
:100AA2009C91A0E00E94F81751F400E010E0CF55AD
:100AB200DF4F288139814A81C15AD040B9C028E725
:100AC200A601BE016F577F4FC4010E949B18B6C09A
:100AD200612F70E09501A1014E0D5F1DC6010E94BC
:100AE200F20FAFC0612F70E0A501C6010E94471648
:100AF200892B09F4A6C0C756DF4F88819981AA8144
:100B0200C959D0409C014A2F2F5F3F4F4F4FC756C4
:100B1200DF4F288339834A83C959D040FC0124918D
:100B2200A7FD2081A601BE016F577F4FC4010E941D
:100B32004A0684C0103809F084C0C756DF4F888146
:100B42009981AA81C959D0400196A11DC756DF4F8C
:100B520088839983AA83C959D040D501ED91FC912C
:100B62001197CF0102968D939C938081F601808329
:100B72005BC0103809F065C0C756DF4F8881998184
:100B8200AA81C959D0400196A11DC756DF4F88835B
:100B92009983AA83C959D040D501ED91FC9111974F
:100BA200CF0103968D939C9320813181428100E095
:100BB20010E03EC0103809F044C0C756DF4F8881AC
:100BC2009981AA81C959D0400196A11DC756DF4F0C
:100BD20088839983AA83C959D040F601708224C0C0
:100BE200D6017C92C256DF4F288139814A81CE5983
:100BF200D040C756DF4F288339834A83C959D04032
:100C0200CF57DF4F19821882C158D040CB57DF4FE0
:100C120019821882C558D0408FEF9FEFCD57DF4F12
:100C220099838883C358D04001E010E0462D920199
:100C3200BE016F577F4FC4010E949E188E0D9F1DEB
:100C420011C0C756DF4F88819981AA81C959D04006
:100C52000196A11DC756DF4F88839983AA83C9597C
:100C6200D040C7017101E80EF91EE214F3044CF4FE
:100C72008FE490E090930301809302018FEF9FEF46
:100C820003C0170121CCC101CD55DF4FE2E10C9425
:020C9200F91651
:100C9400A6E2B0E0E0E5F6E00C94DD169F8F8E8FBF
:100CA400798F688F122FFB010190F081E02DFA8774
:100CB400E987FB01C280D380248135813C8B2B8B57
:100CC4008085918599A388A30680F781E02DFA8316
:100CD400E983FA0180809180A280B38020E030E033
:100CE400A901C501B4010E947B1887FF06C0B7FAA9
:100CF400B094B7F8B0948DE204C0F985F2FF0CC348
:100D04008BE2E981FA8180832B893C892150310966
:100D140038872F8341E050E05A8B498B06C08B897A
:100D24009C8998878F831A8A198AD501C401BF7751
:100D34000097E0E8AE07EFE7BE07D9F4212F110FC3
:100D4400330B2154310989819A8149895A89840F45
:100D5400951F2A31310520F44CE554E060E003C0CE
:100D640040E654E060E00E94D11760E674E080E061
:100D74001EC00197A048BF4730F1212F110F330B3C
:100D84002154310989819A8149895A89840F951F8F
:100D94002A31310520F444E654E060E003C048E61B
:100DA40054E060E00E94D11768E674E080E00E949D
:100DB4006F17E981FA81AF0160E8E984FA840B894D
:100DC4001C899C01A1C220E030E0A901C501B40145
:100DD4000E947B181B821C82882309F467C0F0E8F8
:100DE400FD832FE32E83212C312C20E030E040E2E0
:100DF40051E46B817C818D819E810E949118F62E35
:100E0400072F8D879B87A50194010E9480181816CF
:100E140054F03FEF231A330AFB820C834D854D8334
:100E24005B855E83E2CF1C861B862B813C814D81D2
:100E34005E81C501B4010E947B1887FF3DC084ED2B
:100E440028168EEF380604F5EB85FC85EF2BE1F4CC
:100E540020E030E040E85AE5C501B4010E94911851
:100E64004B015C0120E030E040E85AE56B817C8175
:100E74008D819E810E9491186B837C838D839E83D8
:100E840021E030E03C872B8720E030E040E251E471
:100E94006B817C818D819E810E948D186B837C8304
:100EA4008D839E8331E0231A3108BFCF40E84D8300
:100EB4005FE35E83212C312C812F110F990B9BA3AF
:100EC4008AA30E943F188B8FD7FC03C0DEA2CDA259
:100ED40004C0E6E0F0E0FEA3EDA3FB8DF73641F499
:100EE400CD2809F01EC221E030E03EA32DA319C293
:100EF4008B8D8D8B04C037FE25C296E69D8BEDA1AC
:100F0400FEA13196FEA3EDA3FD89F63699F437FED2
:100F140008C01B821C8220E82D833FE33E83212CE2
:100F2400312C4B8D473631F08DA19EA1820D931D3E
:100F34009EA38DA39B819B87EC81ED87FD81FE8B16
:100F44002E812A8F750164011D8E1C8E8C8D9D8DC2
:100F5400EDA1FEA18E179F07C1F12B853D854E891A
:100F64005A8DC701B6010E948D180E94CE0C2B0128
:100F74003C010E9463186CA38701760117FB10954E
:100F840017F910952B853D854E895A8DC301B20101
:100F94000E94300C6B017C01F7FAF094F7F8F0949E
:100FA40020E030E040E251E46B857D858E899A8DA6
:100FB4000E948D186B877D878E8B9A8F4C8D5D8DEB
:100FC4004F5F5F4F5D8F4C8FC1CF20E030E040EA30
:100FD40050E46B857D858E899A8D0E9491182B0132
:100FE4003C019B01AC01C701B6010E947B1887FD3F
:100FF4000BC0A3019201C701B6010E947B188111A5
:1010040006C0FCA1F0FD03C0412C512C3201A30108
:101014009201C501B4010E945D184B015C012D8948
:10102400253611F0310102C0612C712C23014DA130
:101034005EA1441A550AC988DA8800E010E01C86CB
:101044001B8689859A85807199279F8B8E8B641462
:10105400750431F48B859C85892B09F49AC0A6C04C
:10106400DD8ECC8EE88DF98D808591850597C81627
:10107400D90680F72B813C814D815E81C501B40185
:101084000E948D180E94CE0C6D877E878F87988B67
:101094000E946318CB01EE89FF89EF2B69F4892B39
:1010A40059F4FB8DF73641F477FE06C098012F5FA3
:1010B4003F4F3D8F2C8F43C04B855C85452BB1F44E
:1010C40077FE14C05FEFC51AD50AE981FA818C8DC9
:1010D4009D8DE80FF91F9EE29083EF81F88531978B
:1010E400F887EF8321E030E03C872B87E981FA81A0
:1010F400EC0DFD1D1D8F0C8F8C8D9D8D892B49F062
:1011040030E331934C8D5D8D415051095D8F4C8F8F
:10111400F3CFC8018C0D9D1D2F813885201B310B09
:101124006C01EFEFCE1ADE0AE981FA81E80FF91FAC
:10113400605D6083A9014150510958874F8385013F
:10114400740117FB109517F910952B813C814D8183
:101154005E816D857E858F8598890E94300C4B0158
:101164005C01B7FAB094B7F8B09420E030E040E204
:1011740051E46B817C818D819E810E948D186B83EB
:101184007C838D839E8351E0651A71080C8D1D8DBF
:101194005ECFF985F4FF0AC0E981FA81EC0DFD1DEB
:1011A4008EE2808396012F5F3F4F690149815A8106
:1011B4004C0D5D1D5C874B87FA011082FD89F53665
:1011C40009F061C0E981FA8128A139A1E20FF31F76
:1011D4003197108237FE06C031942194310801E022
:1011E40010E002C000E010E0E8A1F9A131974981C4
:1011F4005A81E40FF51F22E030E08AE0E82EF12C5A
:10120400CF0149815A81841B950B2114310479F053
:10121400C101B7010E948517805D82931B01215093
:1012240031098F819885019798878F83E9CF1216AA
:10123400130674F3FC013197E40FF51F012B11F42D
:101244002BE201C02DE220830297E981FA81E80FA5
:10125400F91F2AA13BA1215431092A31310510F08B
:1012640025E601C025E420832F81388522503109E9
:1012740038872F83C816D90634F4AF0160E88B850C
:101284009C850E94D11749815A813A0180E8882EB1
:10129400998591FF2EC090FD2CC0EF81F8851E1614
:1012A4001F063CF5882DB3010E946F1729813A81EE
:1012B400820F931F9C0149815A81241B350BE989B4
:1012C400FA892E173F074CF0FC012081EF81F88545
:1012D400E80FF91F20830197EDCF4F81588560E314
:1012E40070E089819A818E0F9F1F0E942E181C8A9C
:1012F4001B8A882DB3010E946F17E984FA840B8935
:101304001C899C01682DA3018E8D9F8D0E94830EE4
:10131400A696E2E10C94F916598553FF00CD80E2BC
:10132400F0CC2CEF22162FEF32064CF04DA15EA12B
:10133400241635060CF4DFCD55E65D8BFBCD35E682
:0A1344003D8BF8CD46E64D8BF5CD4C
:10134E00CF92DF92EF92FF920F931F93CF93DF9383
:10135E00CDB7DEB76D970FB6F894DEBF0FBECDBF1B
:10136E00893001F118F4883039F052C08A30E9F131
:10137E008D3009F447C04CC004E011E0F8018081C3
:10138E00909108016181891B0E94371880E20E94AA
:10139E00A709F8018081909108016181891B0E9443
:1013AE0037188FC18091040190910801292F30E0E8
:1013BE00220F331F220F331FB901680F711D45E134
:1013CE0050E08A01021B130B6017710740F4990F4E
:1013DE00990F60910501890F0E94371872C16091B3
:1013EE00050185E10E9437186CC180910501873097
:1013FE0008F067C160910801680F809104010E9496
:10140E0037185FC16091050180E00E94371859C1FD
:10141E00A0910401AA3708F054C1803208F451C1DA
:10142E0080522FE234E040E0F90124918217C8F493
:10143E0032C0440F551F9A0140E0225D3B4F4F4F83
:10144E00642FA901FA01449150E040525109682FCE
:10145E0070E04617570719F4F801849119C09F5F81
:10146E0001C090E0492F50E06A01CC0CDD1CFFEF6B
:10147E00CF1ADF0AE12C2E2D8601025D1B4F2F4F56
:10148E006801E22E8601F60164916F3F91F68FEFAF
:10149E008F3F09F416C190910801923009F0E2C015
:1014AE00B0E01C96A138B10508F00BC110E057C092
:1014BE00612F70E0FB01EE0FFF1F21E030E02C0FDB
:1014CE003D1FE20FF31F15861486282F30E06901A9
:1014DE00CC0CDD1CC20ED31ECC0CDD1CC60ED71ED2
:1014EE00960140E02A503F4F4F4FF901C49090E0D3
:1014FE0033C0E92FF0E02C2D30E0092E02C03595D7
:10150E0027950A94E2F720FF26C0EE0FFF1F21E079
:10151E0030E079010E2E02C0EE0CFF1C0A94E2F7A9
:10152E00DB01AA0FBB1F41E050E04C0F5D1FA40F63
:10153E00B51F1C964D915C911D974E295F293196D2
:10154E0002C0220F331FEA95E2F7242B352B1D968E
:10155E003C932E931C979F5F983058F21F5F163066
:10156E0008F4A6CF20E015C0822F90E0880F991FB7
:10157E00E1E0F0E0EC0FFD1FE80FF91F348530833A
:10158E000196E1E0F0E0EC0FFD1FE80FF91F30834C
:10159E002F5F263048F36CE070E0CE0101960E947A
:1015AE00BC15E4E0F1E081818F54898F81E28A8F4E
:1015BE00808192E0980F9F709B8F90E00296807FC3
:1015CE009927959587959595879595958795959551
:1015DE008795805F8C8F8FE78D8F65E0CE01499662
:1015EE000E94671620E015C0822F90E0880F991F89
:1015FE00E1E0F0E0EC0FFD1FE80FF91F35853083B9
:10160E000196E1E0F0E0EC0FFD1FE80FF91F3083CB
:10161E002F5F263048F36CE070E0CE0101960E94F9
:10162E00BC1504E011E0F80181818055898F80811D
:10163E009EE0980F9F709B8F90E00E96807F99276B
:10164E00929582958F7089279F708927805F8C8FE6
:10165E0065E0CE0149960E946716F8018081845F8D
:10166E0080832FC0B0E01696A138B10550F590E0FA
:10167E001BC0482F50E0292F30E0BA01660F771FAC
:10168E00460F571F440F551F420F531F60E04A501D
:10169E005F4F6F4FFA014491E1E0F0E0EC0FFD1F58
:1016AE00E20FF31F40839F5F963018F366E070E001
:1016BE00CE0101960E94BC15E4E0F1E080818A5FC4
:1016CE0080836D960FB6F894DEBF0FBECDBFDF914F
:1016DE00CF911F910F91FF90EF90DF90CF900895D3
:1016EE000F931F93CF93DF93FC01D90168387105D7
:1016FE0031F194F461387105B1F12CF46038710553
:10170E0009F478C09FC06238710509F459C0643875
:10171E00710509F46FC096C0603A710509F448C0AE
:10172E002CF46039710509F44BC08CC0603C710516
:10173E0009F476C0603F710509F472C083C0CD9183
:10174E00DC911197CE0102968D939C93452B39F027
:10175E009881892F880F880B908381835BC0888145
:10176E008083118268C0CD91DC911197CE010496D1
:10177E008D939C93452B99F088819981AA81BB8189
:10178E00AC01BD01770F440B542FBA0180839183B6
:10179E00A283B383448345834683478328C008814D
:1017AE0019812A813B81008311832283338345C0B3
:1017BE00CD91DC911197CE0102968D939C9323C00F
:1017CE00CD91DC911197CE0108968D939C937881E3
:1017DE0069815A814B813C812D819E818F817083DD
:1017EE00618352834383348325839683878381E089
:1017FE0090E02AC0CD91DC911197CE0102968D9387
:10180E009C93452BA1F099812881892F880F880BF5
:10181E002083918382838383848385838683E6CF2B
:10182E00CD91DC911197CE0102968D939C930881F8
:10183E0019810083118312821382148215821682FB
:10184E001782D5CF80E090E0DF91CF911F910F915D
:02185E000895EB
:10186000A5E1B0E0E6E3FCE00C94DD164701580189
:101870000E9491182B013C01A80197010E945D185C
:10188000162FC72ED82EF92E862F9C2DAD2DBF2DAD
:1018900089839A83AB83BC83AA81FB81EC81ED8031
:1018A0003E802F8008850D8B5E2F5F71212F3A2F90
:1018B0004F2F60E070E080E090E021153105410598
:1018C00000E15007610571058105910509F05EC0D1
:1018D0005E2F6E2D732D822D9D8904E30E94A51627
:1018E0002D873E874F87588B698B7A8B8B8B9C8B90
:1018F0008D859E8597708F3F974009F447C0A3015F
:101900009201612F7C2D8D2D9F2D0E945C189B01D3
:10191000AC01C501B4010E947B188823B9F1498646
:101920005A866B867C8629853A854B855C85C50100
:10193000B4010E945D18B62E872E982EA92E262F50
:10194000372F482F592F612F7C2D8D2D9F2D0E94D1
:101950007B18811118C02B2D8B2D982DA92DBA2DF8
:1019600089839A83AB83BC833A814B815C816E2DE2
:10197000732D822D9D89A1E00E940418122FC32E81
:10198000D42EF52E03C01B2D6401FA2C612F7C2D63
:0C1990008D2D9F2D6596E2E10C94F91658
:10199C004F925F926F927F928F929F92AF92BF9273
:1019AC00CF92DF92EF92FF92CF93DF93CDB7DEB75A
:1019BC0028970FB6F894DEBF0FBECDBF6B017C012C
:1019CC00DC01CB0147E1B695A795979587954A958C
:1019DC00D1F799278F579109873191059CF597FD80
:1019EC0036C088248A94982C3FE7A32EB12C04C0CF
:1019FC00B594A794979487948A95D2F7D501C4018E
:101A0C008C219D21AE21BF21892B8A2B8B2BD1F0D0
:101A1C0020E030E040E85BE7C701B6010E945D18AA
:101A2C006D837E838F839887F7FE04C0C80CD91C06
:101A3C00EA1CFB1C80949094A094B094C820D920EC
:101A4C00EA20FB205C2D4D2D3E2D2F2D21C020E0BA
:101A5C0030E040E85BE7C701B6010E945D1869837E
:101A6C007A838B839C83F7FE0FC0D701C601880F46
:101A7C00991FAA1FBB1F892B8A2B8B2B19F350E0A4
:101A8C0040E030E82FEB04C050E040E030E020E0D4
:101A9C00652F742F832F922F28960FB6F894DEBFE4
:101AAC000FBECDBFDF91CF91FF90EF90DF90CF9025
:101ABC00BF90AF909F908F907F906F905F904F9062
:021ACC0008957B
:101ACE00CF93DF93CDB7DEB764970FB6F894DEBF32
:101ADE000FBECDBF8BB184608BB98BB188608BB9D3
:101AEE008BB180638BB98FEA0E943A1481E090E04B
:101AFE000E942F1186E090E00E940A0F86E090E08F
:101B0E000E94F60D83E090E00E94E11200E010E0EA
:101B1E00EE24E394F12C4A9916C083E0E816F10402
:101B2E0034F4C70101967C010E942F1106C080E09B
:101B3E0090E00E942F11E12CF12C8FE295E7019796
:101B4E00F1F700C000004B9924C00E948C11D62ED4
:101B5E00C72EB82EA92E62E08AE00E943718AF92E7
:101B6E00BF92CF92DF928CE094E0A0E0AF939F9370
:101B7E008F93CE0101966C019F938F930E94AD17A8
:101B8E00B60180E80E9443170FB6F894DEBF0FBE71
:101B9E00CDBF0E941B188F3F29F0813029F402E03F
:101BAE0010E002C001E010E00130110551F465E0D3
:101BBE008AE00E9437186FE074E080E00E944317BD
:101BCE00AACF0230110509F0A6CF65E08AE00E9487
:0E1BDE00371861E174E080E00E9443179CCF4D
:101BEC008B30910508F073C0FC01E35CFF4F0C9443
:101BFC00701866E089E00E94371869EB73E080E0AA
:101C0C000E944317089566E089E00E9437186DEB37
:101C1C0073E080E00E944317089566E089E00E941B
:101C2C00371861EC73E080E00E944317089566E07A
:101C3C0089E00E94371865EC73E080E00E9443173E
:101C4C00089566E089E00E9437186AEC73E080E042
:101C5C000E944317089566E089E00E9437186FECE4
:101C6C0073E080E00E944317089566E089E00E94CB
:101C7C00371864ED73E080E00E944317089566E026
:101C8C0089E00E9437186AED73E080E00E944317E8
:101C9C00089566E089E00E94371860EE73E080E0FA
:101CAC000E944317089566E089E00E94371866EE9B
:101CBC0073E080E00E944317089566E089E00E947B
:101CCC0037186DEE73E080E00E94431708950B9770
:101CDC0054F066E089E00E94371866EE73E080E00D
:101CEC000E944317089566E089E00E94371869EB5B
:0A1CFC0073E080E00E944317089592
:101D06002F923F924F926F927F928F92AF92BF9295
:101D1600CF92DF92EF92FF920F931F93CF93DF93B1
:101D2600CDB7DEB766970FB6F894DEBF0FBECDBF50
:101D36005C013A01862E6901C701817099279C8B47
:101D46008B8BE0FC1DC020173107D4F47801EC180A
:101D5600FD08FE8AED8AA70191E1E916F10410F06B
:101D660040E150E060E270E0CE0101969A8B898BEB
:101D76000E942E1889899A891C0120E8422E0BC0E0
:101D86009601682DA301C5010E94D814C016D1067C
:101D9600ECF2C60125C090E1E916F10458F020E105
:101DA60030E0642DA101C5010E94D81480E1E81A33
:101DB600F108F1CF2D893E892F70332789899A89B9
:101DC600AC0160E8C5010E94D8148B899C89892BD7
:101DD60031F49601682DA301C5010E94D814C801EB
:101DE60066960FB6F894DEBF0FBECDBFDF91CF91DA
:101DF6001F910F91FF90EF90DF90CF90BF90AF9023
:0E1E06008F907F906F904F903F902F90089597
:101E14008930910508F05FC0FC01EC5CFF4F0C9425
:101E2400701863E08BE00E94371862E973E080E089
:101E34000E944317089563E08BE00E94371867E916
:101E440073E080E00E944317089563E08BE00E94F2
:101E540037186CE973E080E00E944317089563E04B
:101E64008BE00E94371861EA73E080E00E94431718
:101E7400089563E08BE00E94371865EA73E080E020
:101E84000E944317089563E08BE00E94371869EAC3
:101E940073E080E00E944317089563E08BE00E94A2
:101EA40037186DEA73E080E00E944317089563E0F9
:101EB4008BE00E94371861EB73E080E00E944317C7
:101EC400089563E08BE00E94371865EB73E080E0CF
:101ED4000E9443170895099754F063E08BE00E9431
:101EE400371865EB73E080E00E944317089563E0C0
:101EF4008BE00E94371862E973E080E00E94431788
:021F040008953E
:101F060010C00E944E1858F00E94471840F029F45D
:101F16005F3F29F00C946A1851110C9456180C94D2
:101F260095180E94041668F39923B1F3552391F38B
:101F3600951B550BBB27AA2762177307840738F032
:101F46009F5F5F4F220F331F441FAA1FA9F335D08F
:101F56000E2E3AF0E0E832D091505040E695001C43
:101F6600CAF72BD0FE2F29D0660F771F881FBB1FFD
:101F7600261737074807AB07B0E809F0BB0B802DDB
:101F8600BF01FF2793585F4F3AF09E3F510578F007
:101F96000C946A180C9456185F3FE4F3983ED4F3F9
:101FA600869577956795B795F7959F5FC9F7880FDB
:101FB600911D9695879597F90895E1E0660F771F2D
:101FC600881FBB1F621773078407BA0720F0621BBE
:0E1FD600730B840BBA0BEE1F88F7E09508958D
:101FE400CF93DF93DC01F90164387105D9F164F40E
:101FF4006138710521F16238710509F440C0603817
:10200400710509F054C02EC060397105C1F184F422
:102014006838710509F04BC0C081D181CE010296A8
:1020240091838083E881F981ED93FC9340833CC0E4
:10203400603A7105B9F0603C7105A1F038C0C08107
:10204400D181CE01029691838083E881F981ED9359
:10205400FC93052E000C660B770B4083518362833F
:10206400738322C0C081D181CE0102969183808383
:10207400E881F981ED93FC935183408315C0C081BD
:10208400D181CE01029691838083E881F981ED9319
:10209400FC9351834083852F880F880B828383832D
:1020A400848385838683878381E090E002C080E017
:0820B40090E0DF91CF91089547
:1020BC000FC00E94471838F00E944E1820F095234C
:1020CC0011F00C946A180C94951811240C94561851
:1020DC000E94041670F3959FC1F3950F50E0551FA5
:1020EC00629FF001729FBB27F00DB11D639FAA2761
:1020FC00F00DB11DAA1F649F6627B00DA11D661FB0
:10210C00829F2227B00DA11D621F739FB00DA11DD0
:10211C00621F839FA00D611D221F749F3327A00D8A
:10212C00611D231F849F600D211D822F762F6A2F26
:10213C0011249F5750409AF0F1F088234AF0EE0F8B
:10214C00FF1FBB1F661F771F881F91505040A9F7B8
:10215C009E3F510580F00C946A180C9456185F3F02
:10216C00E4F3983ED4F3869577956795B795F795F4
:10217C00E7959F5FC1F7FE2B880F911D969587956C
:04218C0097F9089522
:1021900011C00E94471838F00E944E1820F039F400
:1021A0009F3F19F426F40C9495180EF4E095E7FB84
:1021B0000C946A18E92F0E94041658F3BA176207A4
:1021C00073078407950720F079F4A6F50C94551849
:1021D0000EF4E0950B2EBA2FA02D0B01B901900142
:1021E0000C01CA01A0011124FF27591B99F0593F86
:1021F00050F4503E68F11A16F040A22F232F342FCE
:102200004427585FF3CF469537952795A795F0401B
:102210005395C9F77EF41F16BA0B620B730B840B30
:10222000BAF09150A1F0FF0FBB1F661F771F881FE8
:10223000C2F70EC0BA0F621F731F841F48F4879540
:1022400077956795B795F7959E3F08F0B0CF939532
:0E225000880F08F09927EE0F9795879508954F
:10225E008130910511F182309105D9F1892B09F068
:10226E0053C060E080E00E94371862E773E080E0C0
:10227E000E94431763E080E00E94371868E773E01E
:10228E0080E00E94431766E080E00E9437186DE7F9
:10229E0073E080E00E944317089560E080E00E94A2
:1022AE00371862E873E080E00E94431763E080E035
:1022BE000E94371868E873E080E00E94431766E0DA
:1022CE0080E00E9437186DE773E080E00E944317AC
:1022DE00089560E080E00E94371862E873E080E0C5
:1022EE000E94431763E080E00E94371868E773E0AE
:1022FE0080E00E94431766E080E00E9437186DE888
:0A230E0073E080E00E944317089579
:10231800CF93DF9300D000D00F92CDB7DEB780E225
:1023280089838AE090E09B838A839D838C8361E024
:1023380082E00E94261620E041E0BE016F5F7F4FD9
:1023480083E20E946F14892B41F52FE789EA93E015
:10235800215080409040E1F700C0000042E0BE01FB
:102368006E5F7F4F83E20E94BE13892BD9F460E031
:1023780070E07A818C819D81680F791F80E090E000
:102388000E94FD132AE939E949E95FE30E948D18A3
:10239800562F472F382F292F09C05AE949E936EF18
:1023A80022E404C05DEC4CE830EA23E4652F742F86
:1023B800832F922F0F900F900F900F900F90DF9117
:0423C800CF91089514
:1023CC0083B190910A01282F292724FF0DC0209159
:1023DC000601211109C028EC209306019F7E282FAD
:1023EC002071922B90930A0190910A01282F292792
:1023FC0025FF0CC020910701211108C028EC209367
:10240C0007019F7D8072892B80930A0180E040E058
:10241C000FC0282F30E0F901EA5FFE4F908199231D
:10242C0031F0F901EA5FFE4F9150908341E08F5FEC
:10243C00823078F3442331F08FE19EE40197F1F779
:10244C0000C000004C9B02C090E001C093E04D998D
:10245C0002C081E0982780910901891B80FF09C087
:10246C0090930901827090910101890F81508093A2
:04247C0001010895BD
:102480006F927F928F92EF92FF920F931F93CF9351
:10249000DF93CDB7DEB761970FB6F894DEBF0FBEFE
:1024A000CDBFFE01319651E1DF011D925A95E9F74A
:1024B000A2E0B1E0BA83A9839C838B8377FF09C034
:1024C0008FE490E090930301809302018FEF9FEFE0
:1024D00019C03901842E7C01615071097F836E839C
:1024E0009801682DA301CF010E94141748855985D2
:1024F0002E813F814217530708F49A01F701E20F3A
:10250000F31F108261960FB6F894DEBF0FBECDBFE9
:10251000DF91CF911F910F91FF90EF908F907F905F
:042520006F9008951B
:10252400CF92DF92EF92DC0190E0292F30E0220F6E
:10253400331F6901032E000CEE086E2DA6014A5BC1
:102544005B4F6F4F6A01E62EFA018491E7FC8081AC
:1025540081110DC02F5F3F4F032E000C440B2A5BEB
:102564003B4F4F4FF901849147FD808124C0CD90AA
:10257400DD90EC901297F6014491E7FC40818413BE
:1025840015C02F5F3F4F032E000C440B2A5B3B4FBB
:102594004F4FF901949147FD90815FEFC51AD50A19
:1025A400E50ACD92DD92EC92129701C09F5F9B30B9
:0E25B40008F4BBCF892FEF90DF90CF900895F1
:1025C2008230910509F12CF4009751F0019791F0B6
:1025D20008958430910561F10CF1059799F1089500
:1025E20060E08BE00E94371864EF73E080E00E94A5
:1025F2004317089560E08BE00E94371869EF73E09B
:1026020080E00E944317089560E08BE00E94371833
:102612006DEF73E080E00E944317089560E08BE065
:102622000E94371861E074E080E00E944317089529
:1026320060E08BE00E94371865E074E080E00E9461
:102642004317089560E08BE00E94371869E074E058
:0826520080E00E944317089587
:10265A000F931F93CF93DF93DB012D913C91119739
:10266A0030FF25C017964D915C91189715962D91BC
:10267A003C9116974217530778F41296ED91FC9104
:10268A001397808312962D913C9113972F5F3F4F9A
:10269A0013963C932E93129717962D913C91189767
:1026AA002F5F3F4F18963C932E93179715C01D9690
:1026BA00ED91FC911E97309719F48FEF9FEF0CC0A4
:1026CA008B01EC010995892BC1F7F8018781908567
:1026DA00019690878783CE01DF91CF911F910F9149
:0226EA00089551
:1026EC00CF939B01482FF901849147FD8081803263
:1026FC00C9F1682F082E000C770B695071096530F1
:10270C00710580F18B3249F5A0E0B0E02F5F3F4FAF
:10271C004F4F02C0A0E0B0E080E090E0CAE0F901C9
:10272C00649147FD6081062E000C770B6053710994
:10273C006A30710560F4C89FF001C99FF00D112437
:10274C002F5F3F4F4F4FCF01861B970BE8CFAB2B23
:10275C0069F491958195910909C08D32D9F6A1E062
:10276C00B0E0D4CF2F5F3F4F4F4FBDCFCF910895E7
:10277C00CF92DF92FF920F931F93CF93DF93C82FCB
:10278C008B01F42E0E94C1169C01009739F58C2FF9
:10279C0090E0880F991F81600E9485160097F9F4CC
:1027AC00C0E0D0E009C06801CC0EDD1E81E00E94C3
:1027BC009715F601808321968F2D90E00197C8170D
:1027CC00D9078CF3EC01C00FD11F80E00E94971544
:1027DC0088830E94891880E090E001C0932FDF91DC
:0E27EC00CF911F910F91FF90DF90CF90089535
:1027FA00E89409C097FB3EF4909580957095619591
:10280A007F4F8F4F9F4F9923A9F0F92F96E9BB2746
:10281A009395F695879577956795B795F111F8CFC2
:10282A00FAF4BB0F11F460FF1BC06F5F7F4F8F4F2D
:10283A009F4F16C0882311F096E911C0772321F023
:10284A009EE8872F762F05C0662371F096E8862FBB
:10285A0070E060E02AF09A95660F771F881FDAF712
:0A286A00880F9695879597F9089559
:102874001F93CF93DF93CDB7DEB76C970FB6F89461
:10288400DEBF0FBECDBF182F0E94251840E011C037
:10289400242F30E0C901A0E08D5E9B4FAF4FFC01B7
:1028A4008491E1E0F0E0EC0FFD1FE20FF31F808361
:1028B4004F5F4B3168F31C8F6CE1CE0101960E948F
:1028C40067160E940C156C960FB6F894DEBF0FBE07
:0A28D400CDBFDF91CF911F91089551
:1028DE00EF92FF920F931F93CF93DF93C82F7B013D
:1028EE00142F022F0E94C116009701F58C2F880F0E
:1028FE000E9485160097D1F4C0E0D0E009C0F70120
:10290E00EC0FFD1F80810E945917009779F42196D4
:10291E00812F90E0C817D90794F3011105C00E94CA
:10292E00891880E090E002C080E090E0DF91CF91C6
:0A293E001F910F91FF90EF90089594
:10294800CF93DF9300D000D00F92CDB7DEB7813898
:1029580018F5683008F5E4E0F1E08083618360559C
:10296800698391E29A8392E0980F9F709B8390E02D
:102978000296807F99279595879595958795959542
:10298800879595958795805F8C838FE78D8365E024
:10299800CE0101960E9467160F900F900F900F902E
:0829A8000F90DF91CF9108951B
:1029B0006F927F928F92CF92DF92EF920F931F933D
:1029C000CF93DF938C016A01E62EE9013A01862E4E
:1029D000620E731E811C37FD8A94C614D704E80466
:1029E00079F0F6018491E7FC8081B801082E000C93
:1029F000990B0E942D138FEFC81AD80AE80AEDCF61
:102A0000CE01DF91CF911F910F91EF90DF90CF908A
:082A10008F907F906F900895F4
:102A18001F93CF93DF93CDB7DEB7C058D1090FB658
:102A2800F894DEBF0FBECDBFFE01319680E8DF010E
:102A38001D928A95E9F710E00BC0612F80E00E9493
:102A4800371860E870E0CE0101960E94BC151F5F40
:102A5800183098F30E947618C058DF4F0FB6F894D4
:0E2A6800DEBF0FBECDBFDF91CF911F9108954D
:102A76000E940C1688F09F5798F0B92F9927B751E6
:102A8600B0F0E1F0660F771F881F991F1AF0BA950C
:102A9600C9F714C0B13091F00E945518B1E00895FD
:102AA6000C945518672F782F8827B85F39F0B93FEF
:102AB600CCF3869577956795B395D9F73EF49095BF
:0E2AC6008095709561957F4F8F4F9F4F0895BB
:102AD40094EA9093BC0020EA30E009C02150310907
:102AE40031F48091000181608093000108959091F8
:102AF400BC0099231CF02115310581F78093BB009C
:102B040084E88093BC0080EA90E008C0019731F427
:102B14008091000182608093000108952091BC009F
:0A2B2400222314F0009791F70895A2
:102B2E00882381F084EC8093BC008091BC008823C4
:102B3E00E4F78091B900887F8035A1F08091B900CB
:102B4E00887F089584E88093BC008091BC00882320
:102B5E00E4F78091B900887F883521F08091B90023
:0A2B6E00887F08958091BB00089550
:102B7800EF92FF920F931F93CF93DF937C018B010A
:102B880088E70E946A1580E40E942C17C0E0D0E014
:102B980007C0F701EC0FFD1F80810E942C172196BA
:102BA800C017D107B0F30E948518DF91CF911F910C
:082BB8000F91FF90EF900895CA
:102BC000990F0008550FAA0BE0E8FEEF161617063E
:102BD000E807F907C0F012161306E407F50798F0A6
:102BE000621B730B840B950B39F40A2661F0232BBF
:102BF000242B252B21F408950A2609F4A140A6953B
:082C00008FEF811D811D089575
:102C080057FD9058440F551F59F05F3F71F0479595
:102C1800880F97FB991F61F09F3F79F0879508957A
:102C2800121613061406551FF2CF4695F1DF08C099
:102C3800161617061806991FF1CF869571056105B6
:042C4800089408954F
:102C4C0097B1906397B9662321F098B1906398B9C6
:102C5C0003C098B19F7C98B997B19F7C97B981308C
:102C6C0041F018F0823049F0089588E48093B80060
:102C7C00089588E18093B80008958CE08093B800A3
:022C8C000895A9
:102C8E00FA0160387105CCF0623871051CF06338BA
:102C9E00710599F4A081B1819D012C5F3F4F318365
:102CAE0020834D915D916D917C91FC014083518308
:102CBE006283738381E090E0089580E090E0089550
:102CCE000F931F93CF93DF938C01D62F88E70E942B
:102CDE006A1580E00E942C17C0E007C0F801EC0FC7
:102CEE00F11D80810E942C17CF5FCD17B8F30E9483
:0C2CFE008518DF91CF911F910F91089570
:102D0A008093BB0084E88093BC008091BC00882338
:102D1A00E4F78091B900887F883151F08091B90039
:102D2A00887F803441F08091B900887F90E00895CF
:0C2D3A0080E090E0089580E090E00895B3
:102D460097FB10F8169400080F93083098F0085077
:102D5600232F342F452F562F672F782F892F902D0D
:102D6600F4CF0594979587957795679557954795E9
:0C2D7600379527950A95AAF70F9108954C
:102D820084EA8093BC008091BC008823E4F78091A0
:102D9200B900887F883051F08091B900887F8031F6
:102DA20041F08091B900887F90E0089580E090E042
:082DB200089580E090E008950F
:102DBA002F923F924F925F926F927F928F929F9241
:102DCA00AF92BF92CF92DF92EF92FF920F931F932F
:102DDA00CF93DF93CDB7DEB7CA1BDB0B0FB6F894E0
:082DEA00DEBF0FBECDBF09944E
:102DF2002A88398848885F846E847D848C849B8489
:102E0200AA84B984C884DF80EE80FD800C811B8196
:102E1200AA81B981CE0FD11D0FB6F894DEBF0FBEC5
:062E2200CDBFED01089593
:102E2800A2E0B0E0EAE1F7E10C94EB168C013A83FA
:102E380029839E012F5F3F4F0E943902F8012081AC
:102E480024FF02C08FEF9FEF2296E4E00C9407174F
:102E58008093BB0084E88093BC0080EA90E008C0BF
:102E6800019731F4809100018460809300010895F6
:0E2E78002091BC00222314F0009791F70895DA
:102E8600CF92DF92EF926B01E82E06C09FEFC91A30
:102E9600D90AE90A0E94A709F6018491E7FC808114
:0C2EA6008111F4CFEF90DF90CF900895E1
:102EB2008093BB0084E88093BC008091BC0088238F
:102EC200E4F78091B900887F883229F08091B900B7
:0C2ED200887F90E0089580E090E0089573
:102EDE00CF92DF92EF926B01E82EA82FCB01FC016F
:102EEE002491A7FD2081222319F00196A11DF7CF71
:0C2EFE008C199D09EF90DF90CF90089593
:102F0A0097FB072E16F4009407D077FD09D00E948C
:102F1A00991707FC05D03EF4909581959F4F089527
:082F2A00709561957F4F089539
:102F3200AA1BBB1B51E107C0AA1FBB1FA617B707DD
:102F420010F0A61BB70B881F991F5A95A9F78095F9
:082F52009095BC01CD0108952A
:102F5A00A0E0B0E0E3EBF7E10C94ED169E01265FEA
:102F6A003F4F4F81588569858D819E810E94EC175C
:062F7A00E2E00C940917CF
:102F8000092E0394000C11F4882352F0BB0F40F477
:102F9000BF2B11F460FF04C06F5F7F4F8F4F9F4FB7
:022FA000089592
:102FA2009A01462FDC01F901549147FD50815D934E
:0C2FB2002F5F3F4F4F4F5111F6CF089595
:102FBE00992777FD05C005900D920197E1F70895C9
:0A2FCE0001900D920197E1F70895BC
:102FD8000F931F9389019A01462F6FEF7FE70E9495
:082FE80040121F910F910895A2
:102FF0000024A7FD00942A17300540055005600500
:0830000070058005900508959C
:103008000024A7FD00942A0F301D401D501D601D8F
:08301800701D801D901D08953C
:10302000EC010E94A6180E94A518CE010E94A718C4
:06303000CE010E94A3186E
:103036000E94E61180910101982F917090930101F1
:0430460085950895CF
:10304A001092B90080E28093B80084E08093BC00BB
:02305A000895D7
:10305C00FC01480F591FE417F50711F06193FBCFE2
:02306C000895C5
:10306E00982F990F980F892F880F0E94A4140895F6
:10307E009C01215431092A31310508F480620895EA
:0E308E0000240A94161617061806090608955F
:0E309C0000240A941216130614060506089561
:0E30AA00E894BB2766277727CB0197F9089596
:0E30B8005058BB27AA270E94C8100C94C017BE
:0E30C6000E943B156894B1110C9456180895A1
:0C30D40097F99F6780E870E060E00895C5
:0C30E000EE0FFF1F0590F491E02D099405
:0A30EC0060E080E00E9437180895AC
:0A30F6000E94E01508F481E008953F
:0A3100000E94E01508F48FEF089517
:08310A0084E98093BC000895E4
:0831120084E98093BC000895DC
:08311A000E94830F0C94C01702
:083122000E945E100C94C0171E
:06312A009FEF80EC089508
:0631300080E090E008952C
:0631360080E090E0089526
:06313C0080E090E0089520
:043142000C940000E9
:043146000E9479006A
:02314A000895E6
:02314C000895E4
:02314E000895E2
:01315000017D
:00000001FF
