:100000000C9457000C945C0C0C945C0C0C945C0CE1
:100010000C945C0C0C945C0C0C945C0C0C945C0CC0
:100020000C945C0C0C945C0C0C945C0C0C945C0CB0
:100030000C945C0C0C945C0C0C945C0C0C945C0CA0
:100040000C945C0C0C945C0C0C945C0C0C945C0C90
:100050000C945C0C0C945C0C0C945C0C0C945C0C80
:100060000C945C0C0C945C0C470651065B06650610
:100070006F06790683068D069706BA05C405CE0578
:10008000D805E205EC05F60500060A0614061E066C
:100090000100010280010201300018C60130013464
:1000A00080013401350018F4013501378000112436
:1000B0001FBECFEFD8E0DEBFCDBFE0E9F0E040E00B
:1000C00017C0B591A59135912591059107FD0CC0FB
:1000D00095918591EF01F92FE82F05900D92A217C8
:1000E000B307D9F7FE0104C01D92A217B307E1F7C9
:1000F000ED3AF40731F70E940C040C94F20BF894DB
:02010000FFCF2F
:100102000000000000000000002F000000000700B7
:10011200070000147F147F1400242A7F2A12006231
:1001220064081323003649552250000005030000DD
:1001320000001C224100000041221C000014083E65
:1001420008140008083E0808000000A0600000082B
:10015200080808080000606000000020100804027F
:10016200003E5149453E0000427F4000004261513D
:100172004946002141454B31001814127F100027D7
:1001820045454539003C4A4949300001710905039A
:1001920000364949493600064949291E00003636CB
:1001A200000000005636000000081422410000142E
:1001B200141414140000412214080002015109060B
:1001C20000324959513E007C1211127C007F49498C
:1001D2004936003E41414122007F4141221C007FBD
:1001E20049494941007F09090901003E4149497ACB
:1001F200007F0808087F0000417F41000020404145
:100202003F01007F08142241007F40404040007FB0
:10021200020C027F007F0408107F003E4141413EF4
:10022200007F09090906003E4151215E007F09193C
:1002320029460046494949310001017F0101003F39
:100242004040403F001F2040201F003F4038403FB9
:10025200006314081463000708700807006151491D
:10026200454300007F41410000552A552A550000B0
:1002720041417F000004020102040040404040402E
:10028200000001020400002054545478007F4844C6
:10029200443800384444442000384444487F0038FD
:1002A2005454541800087E0901020018A4A4A47C26
:1002B200007F080404780000447D400000408084F0
:1002C2007D00007F102844000000417F4000007C38
:1002D20004180478007C0804047800384444443844
:1002E20000FC242424180018242418FC007C080490
:1002F200040800485454542000043F444020003C69
:100302004040207C001C2040201C003C4030403CEF
:10031200004428102844001CA0A0A07C004464547F
:100322004C44000008774100000000630000000018
:1003320041770800000804080804003A4040207A87
:10034200003D4040403D002154545479007D12113B
:10035200127D003944444439003D4242423D00028C
:1003620005020000007E01495573007C1010081C34
:0C037200003048204830005C6202625CF1
:10037E003E49534F7C00202020417C0020202054F9
:10038E007C002049534F7C003E2020417C003E20C3
:10039E0020547C0032322E300031362E3000313176
:1003AE002E3000382E302000352E362000342E30E0
:1003BE002000322E382000322E302000312E3420F4
:1003CE0000312F322020202000312F3420202020F9
:1003DE0000312F382020202000312F3135202020D1
:1003EE0000312F333020202000312F3630202020B6
:1003FE0000312F313235202000312F323530202080
:10040E0000312F353030202000312F313030302068
:10041E0000312F323030302000313630300038305D
:10042E003020003430302000323030200031303077
:07043E0020003530202000F2
:10044500AE2000B0C8001040813FA1A6A83FA4D3AC
:0B04550000D5F0D922DA12DB208D1454
:10046000BC5F9C60A4618462B6639664B0659F665D
:08047000B5678968A969FFFF67
:10047800CF92DF92EF92FF920F931F93CF93DF9368
:10048800CDB7DEB76D970FB6F894DEBF0FBECDBF00
:10049800893001F118F4883039F052C08A30E9F116
:1004A8008D3009F447C04CC000E311E0F8018081A9
:1004B800909134016181891B0E94060C80E20E94A0
:1004C8003C02F8018081909134016181891B0E946E
:1004D800060C8FC18091300190913401292F30E0B2
:1004E800220F331F220F331FB901680F711D45E119
:1004F80050E08A01021B130B6017710740F4990F33
:10050800990F60913101890F0E94060C72C16091A8
:10051800310185E10E94060C6CC180913101873060
:1005280008F067C160913401680F809130010E9422
:10053800060C5FC16091310180E00E94060C59C130
:10054800A0913001AA3708F054C1803208F451C193
:10055800805221E634E040E0F90124918217C8F482
:1005680032C0440F551F9A0140E0205A3B4F4F4F6D
:10057800642FA901FA01449150E040525109682FB3
:1005880070E04617570719F4F801849119C09F5F66
:1005980001C090E0492F50E06A01CC0CDD1CFFEF50
:1005A800CF1ADF0AE12C2E2D8601005A1B4F2F4F40
:1005B8006801E22E8601F60164916F3F91F68FEF94
:1005C8008F3F09F416C190913401923009F0E2C0CE
:1005D800B0E01C96A138B10508F00BC110E057C077
:1005E800612F70E0FB01EE0FFF1F21E030E02C0FC0
:1005F8003D1FE20FF31F15861486282F30E069018E
:10060800CC0CDD1CC20ED31ECC0CDD1CC60ED71EB6
:10061800960140E02E5F3E4F4F4FF901C49090E0A5
:1006280033C0E92FF0E02C2D30E0092E02C03595BB
:1006380027950A94E2F720FF26C0EE0FFF1F21E05E
:1006480030E079010E2E02C0EE0CFF1C0A94E2F78E
:10065800DB01AA0FBB1F41E050E04C0F5D1FA40F48
:10066800B51F1C964D915C911D974E295F293196B7
:1006780002C0220F331FEA95E2F7242B352B1D9673
:100688003C932E931C979F5F983058F21F5F16304B
:1006980008F4A6CF20E015C0822F90E0880F991F9C
:1006A800E1E0F0E0EC0FFD1FE80FF91F348530831F
:1006B8000196E1E0F0E0EC0FFD1FE80FF91F308331
:1006C8002F5F263048F36CE070E0CE0101960E945F
:1006D800B00AE0E3F1E081818F54898F81E28A8F4B
:1006E800808192E0980F9F709B8F90E00296807FA8
:1006F8009927959587959595879595958795959536
:100708008795805F8C8F8FE78D8F65E0CE01499646
:100718000E943B0B20E015C0822F90E0880F991FA4
:10072800E1E0F0E0EC0FFD1FE80FF91F358530839D
:100738000196E1E0F0E0EC0FFD1FE80FF91F3083B0
:100748002F5F263048F36CE070E0CE0101960E94DE
:10075800B00A00E311E0F80181818055898F80811A
:100768009EE0980F9F709B8F90E00E96807F992750
:10077800929582958F7089279F708927805F8C8FCB
:1007880065E0CE0149960E943B0BF8018081845FA9
:1007980080832FC0B0E01696A138B10550F590E0DF
:1007A8001BC0482F50E0292F30E0BA01660F771F91
:1007B800460F571F440F551F420F531F60E04E5FEF
:1007C8005E4F6F4FFA014491E1E0F0E0EC0FFD1F3E
:1007D800E20FF31F40839F5F963018F366E070E0E6
:1007E800CE0101960E94B00AE0E3F1E080818A5FC1
:1007F80080836D960FB6F894DEBF0FBECDBFDF9134
:10080800CF911F910F91FF90EF90DF90CF900895B7
:10081800CF93DF93CDB7DEB76C970FB6F894DEBFF2
:100828000FBECDBF8BB184608BB98BB188608BB99B
:100838008BB180638BB98FEA0E94620981E090E0F6
:100848000E948D0784E090E00E943E0687E090E0D9
:100858000E94B10582E090E00E949A08EE24E39499
:10086800F12C6894882481F8912C0F2EF7E0AF2E94
:10087800B12CF02D6894662462F8712C4A9913C043
:1008880043E0E416F10424F45FEFE51AF50A02C028
:10089800E12CF12CC7010E948D078FE295E70197A3
:1008A800F1F700C000004B9904C191E0E916F1048A
:1008B80009F086C00E944408698F7A8F8B8F9C8FBD
:1008C80088E1E2E0F1E0DE01119601900D928A954F
:1008D800E1F720E030E64AE656E4698D7A8D8B8DA3
:1008E8009C8D0E94480C18160CF443C0D12C22C0D1
:1008F8000D2D10E0000F111FE1E0F0E0EC0FFD1FDF
:100908000E0F1F1FF80160817181072E000C880BE4
:10091800990B0E942709298D3A8D4B8D5C8D0E9479
:100928000E0C0E94150CCB010E94310CF80191832A
:100938008083D394FAE0FD15D8F669817A8180E046
:10094800A0E0B0E013C0282F30E0F901EE0FFF1F40
:1009580041E050E04C0F5D1FE40FF51F40815181CD
:100968006417750714F0BA01D9018F5F8B3058F3FB
:1009780002C0A0E0B0E025E030E02A1B3B0B82E09B
:1009880090E05C01A818B908C3010497A80EB91E25
:10099800A20EB31E57E0A50EB11C8BE0A816B10439
:1009A8001CF4BB204CF406C00F2EFAE0AF2EB12C7D
:1009B800F02D02C0A12CB12CC5010E94B10579C04F
:1009C80092E0E916F10409F074C00E9444082B0172
:1009D8003C0186E1EAE1F1E0DE01119601900D9219
:1009E8008A95E1F7D12C20C00D2D10E0000F111FC2
:1009F800E1E0F0E0EC0FFD1F0E0F1F1FF801608112
:100A08007181072E000C880B990B0E942709A301FE
:100A180092010E940E0C0E94150CCB010E94310C11
:100A2800F80191838083D394FAE0FD15E8F6698193
:100A38007A8180E0A0E0B0E013C0282F30E0F9010F
:100A4800EE0FFF1F41E050E04C0F5D1FE40FF51F54
:100A5800408151816417750714F0BA01D9018F5F7D
:100A68008B3058F385E090E0AC014A1B5B0B82E0C9
:100A780090E08819990927E030E02A193B09820F8C
:100A8800931F840F951F24E030E03901681A790A12
:100A980059E0651671041CF4772044F405C0689485
:100AA800662463F8712C02C0612C712CC3010E946A
:100AB8003E060E94E70B8F3F41F1813009F0DECE00
:100AC800E114F10451F4181419040CF0D7CEC40140
:100AD80001974C010E949A08D1CE81E0E816F104F2
:100AE80051F4161417040CF0C9CEC30101973C0148
:100AF8000E943E06C3CE1A141B040CF0BFCEC501DB
:100B080001975C010E94B105B9CEE114F10459F4D2
:100B180095E0891691040CF0B1CEC40101964C0100
:100B28000E949A08ABCEE1E0EE16F10459F4F8E021
:100B38006F1671040CF0A2CEC30101963C010E940D
:100B48003E069CCE4AE0A416B1040CF097CEC5012F
:0A0B580001965C010E94B10591CEE8
:100B62008B30910508F073C0FC01E35CFF4F0C94DD
:100B72003D0C66E08BE00E94060C6FEC73E080E0B7
:100B82000E94AA0B089566E08BE00E94060C67EDB6
:100B920073E080E00E94AA0B089566E08BE00E9459
:100BA200060C6FED73E080E00E94AA0B089566E0E8
:100BB2008BE00E94060C67EE73E080E00E94AA0BB5
:100BC200089566E08BE00E94060C6FEE73E080E011
:100BD2000E94AA0B089566E08BE00E94060C67EF64
:100BE20073E080E00E94AA0B089566E08BE00E9409
:100BF200060C6FEF73E080E00E94AA0B089566E096
:100C02008BE00E94060C67E074E080E00E94AA0B71
:100C1200089566E08BE00E94060C6FE074E080E0CD
:100C22000E94AA0B089566E08BE00E94060C67E121
:100C320074E080E00E94AA0B089566E08BE00E94B7
:100C4200060C6FE174E080E00E94AA0B08950B97F6
:100C520054F066E08BE00E94060C6FE174E080E0E5
:100C62000E94AA0B089566E08BE00E94060C6FECCE
:0A0C720073E080E00E94AA0B0895D1
:100C7C008930910508F05FC0FC01EC5CFF4F0C94CF
:100C8C003D0C63E08BE00E94060C62EA73E080E0AE
:100C9C000E94AA0B089563E08BE00E94060C67EAA1
:100CAC0073E080E00E94AA0B089563E08BE00E9441
:100CBC00060C6CEA73E080E00E94AA0B089563E0D6
:100CCC008BE00E94060C61EB73E080E00E94AA0BA3
:100CDC00089563E08BE00E94060C66EB73E080E005
:100CEC000E94AA0B089563E08BE00E94060C6BEB4C
:100CFC0073E080E00E94AA0B089563E08BE00E94F1
:100D0C00060C60EC73E080E00E94AA0B089563E08F
:100D1C008BE00E94060C65EC73E080E00E94AA0B4D
:100D2C00089563E08BE00E94060C6AEC73E080E0AF
:100D3C000E94AA0B0895099754F063E08BE00E947F
:100D4C00060C6AEC73E080E00E94AA0B089563E045
:100D5C008BE00E94060C62EA73E080E00E94AA0B12
:020D6C000895E8
:100D6E0010C00E94230C58F00E941C0C40F029F475
:100D7E005F3F29F00C94370C51110C942B0C0C94F2
:100D8E00590C0E94F80A68F39923B1F3552391F395
:100D9E00951B550BBB27AA2762177307840738F0DC
:100DAE009F5F5F4F220F331F441FAA1FA9F335D039
:100DBE000E2E3AF0E0E832D091505040E695001CED
:100DCE00CAF72BD0FE2F29D0660F771F881FBB1FA7
:100DDE00261737074807AB07B0E809F0BB0B802D85
:100DEE00BF01FF2793585F4F3AF09E3F510578F0B1
:100DFE000C94370C0C942B0C5F3FE4F3983ED4F319
:100E0E00869577956795B795F7959F5FC9F7880F84
:100E1E00911D9695879597F90895E1E0660F771FD6
:100E2E00881FBB1F621773078407BA0720F0621B67
:0E0E3E00730B840BBA0BEE1F88F7E095089536
:100E4C0011C00E941C0C38F00E94230C20F039F4C5
:100E5C009F3F19F426F40C94590C0EF4E095E7FB23
:100E6C000C94370CE92F0E94F80A58F3BA17620752
:100E7C0073078407950720F079F4A6F50C942A0CD7
:100E8C000EF4E0950B2EBA2FA02D0B01B901900199
:100E9C000C01CA01A0011124FF27591B99F0593FDD
:100EAC0050F4503E68F11A16F040A22F232F342F25
:100EBC004427585FF3CF469537952795A795F04073
:100ECC005395C9F77EF41F16BA0B620B730B840B88
:100EDC00BAF09150A1F0FF0FBB1F661F771F881F40
:100EEC00C2F70EC0BA0F621F731F841F48F4879598
:100EFC0077956795B795F7959E3F08F0B0CF93958A
:0E0F0C00880F08F09927EE0F979587950895A6
:100F1A008130910511F182309105D9F1892B09F0BF
:100F2A0053C060E080E00E94060C6EE773E080E048
:100F3A000E94AA0B63E080E00E94060C64E873E05A
:100F4A0080E00E94AA0B66E080E00E94060C6AE834
:100F5A0073E080E00E94AA0B089560E080E00E949E
:100F6A00060C60E973E080E00E94AA0B63E080E06F
:100F7A000E94060C66E973E080E00E94AA0B66E014
:100F8A0080E00E94060C6AE873E080E00E94AA0BE7
:100F9A00089560E080E00E94060C60E973E080E05A
:100FAA000E94AA0B63E080E00E94060C64E873E0EA
:100FBA0080E00E94AA0B66E080E00E94060C6CE9C1
:0A0FCA0073E080E00E94AA0B089576
:100FD40083B190913601282F292724FF0DC0209139
:100FE4003201211109C028EC209332019F7E282F61
:100FF4002071922B9093360190913601282F292746
:1010040025FF0CC020913301211108C028EC209346
:1010140033019F7D8072892B8093360180E040E00C
:101024000FC0282F30E0F901EE5CFE4F9081992328
:1010340031F0F901EE5CFE4F9150908341E08F5FF7
:10104400823078F3442331F08FEC97E00197F1F785
:1010540000C000004C9B02C090E001C093E04D9999
:1010640002C081E0982780913501891B80FF09C067
:1010740090933501827090910101890F8150809382
:0410840001010895C9
:10108800CF93DF9300D00F92CDB7DEB780E289838C
:101098008AE08A838B8361E082E00E941A0B20E059
:1010A80041E0BE016F5F7F4F83E20E949709892B61
:1010B80051F52FE789EA93E0215080409040E1F70D
:1010C80000C0000042E0BE016E5F7F4F83E20E94D5
:1010D800E608892BE9F46A8170E0762F66278B8110
:1010E800680F711D072E000C880B990B0E942709A9
:1010F8002AE939E949E95FE30E94550C562F472F41
:10110800382F292F09C05AE949E936EF22E404C0EB
:101118005DEC4CE830EA23E4652F742F832F922F7F
:0C1128000F900F900F90DF91CF91089571
:101134008230910509F12CF4009751F0019791F058
:1011440008958430910561F10CF1059799F10895A2
:1011540060E08BE00E94060C67E274E080E00E948D
:10116400AA0B089560E08BE00E94060C6CE274E028
:1011740080E00E94AA0B089560E08BE00E94060CB8
:1011840061E374E080E00E94AA0B089560E08BE0C4
:101194000E94060C66E374E080E00E94AA0B0895A6
:1011A40060E08BE00E94060C6BE374E080E00E9438
:1011B400AA0B089560E08BE00E94060C60E474E0E2
:0811C40080E00E94AA0B0895CF
:1011CC00CF92DF92FF920F931F93CF93DF93C82F91
:1011DC008B01F42E0E94770B9C01009739F58C2F14
:1011EC0090E0880F991F81600E94590B0097F9F4C9
:1011FC00C0E0D0E009C06801CC0EDD1E81E00E9489
:10120C008B0AF601808321968F2D90E00197C817E9
:10121C00D9078CF3EC01C00FD11F80E00E948B0A20
:10122C0088830E94510C80E090E001C0932FDF91E5
:0E123C00CF911F910F91FF90DF90CF900895FA
:10124A00E89409C097FB3EF4909580957095619556
:10125A007F4F8F4F9F4F9923A9F0F92F96E9BB270C
:10126A009395F695879577956795B795F111F8CF88
:10127A00FAF4BB0F11F460FF1BC06F5F7F4F8F4FF3
:10128A009F4F16C0882311F096E911C0772321F0E9
:10129A009EE8872F762F05C0662371F096E8862F81
:1012AA0070E060E02AF09A95660F771F881FDAF7D8
:0A12BA00880F9695879597F908951F
:1012C4001F93CF93DF93CDB7DEB76C970FB6F89427
:1012D400DEBF0FBECDBF182F0E94FD0B40E011C032
:1012E400242F30E0C901A0E08B5B9B4FAF4FFC0182
:1012F4008491E1E0F0E0EC0FFD1FE20FF31F808327
:101304004F5F4B3168F31C8F6CE1CE0101960E9454
:101314003B0B0E94000A6C960FB6F894DEBF0FBE1A
:0A132400CDBFDF91CF911F91089516
:10132E00EF92FF920F931F93CF93DF93C82F7B0102
:10133E00142F022F0E94770B009701F58C2F880F28
:10134E000E94590B0097D1F4C0E0D0E009C0F7011C
:10135E00EC0FFD1F80810E94C00B009779F421963F
:10136E00812F90E0C817D90794F3011105C00E9490
:10137E00510C80E090E002C080E090E0DF91CF91D0
:0A138E001F910F91FF90EF9008955A
:10139800CF93DF9300D000D00F92CDB7DEB781385E
:1013A80018F5683008F5E0E3F1E080836183605563
:1013B800698391E29A8392E0980F9F709B8390E0F3
:1013C8000296807F99279595879595958795959508
:1013D800879595958795805F8C838FE78D8365E0EA
:1013E800CE0101960E943B0B0F900F900F900F902B
:0813F8000F90DF91CF910895E1
:101400001F93CF93DF93CDB7DEB7C058D1090FB686
:10141000F894DEBF0FBECDBFFE01319680E8DF013C
:101420001D928A95E9F710E00BC0612F80E00E94C1
:10143000060C60E870E0CE0101960E94B00A1F5FC2
:10144000183098F30E94430CC058DF4F0FB6F89441
:0E145000DEBF0FBECDBFDF91CF911F9108957B
:10145E000E94000B88F09F5798F0B92F9927B7512B
:10146E00B0F0E1F0660F771F881F991F1AF0BA953A
:10147E00C9F714C0B13091F00E942A0CB1E0089562
:10148E000C942A0C672F782F8827B85F39F0B93F54
:10149E00CCF3869577956795B395D9F73EF49095ED
:0E14AE008095709561957F4F8F4F9F4F0895E9
:1014BC0094EA9093BC0020EA30E009C02150310935
:1014CC0031F4809100018160809300010895909126
:1014DC00BC0099231CF02115310581F78093BB00CA
:1014EC0084E88093BC0080EA90E008C0019731F456
:1014FC008091000182608093000108952091BC00CE
:0A150C00222314F0009791F70895D0
:10151600882381F084EC8093BC008091BC008823F2
:10152600E4F78091B900887F8035A1F08091B900F9
:10153600887F089584E88093BC008091BC0088234E
:10154600E4F78091B900887F883521F08091B90051
:0A155600887F08958091BB0008957E
:10156000EF92FF920F931F93CF93DF937C018B0138
:1015700088E70E945E0A80E40E94930BC0E0D0E0FE
:1015800007C0F701EC0FFD1F80810E94930B21968D
:10159000C017D107B0F30E944D0CDF91CF911F917E
:0815A0000F91FF90EF900895F8
:1015A800990F0008550FAA0BE0E8FEEF161617066C
:1015B800E807F907C0F012161306E407F50798F0D4
:1015C800621B730B840B950B39F40A2661F0232BED
:1015D800242B252B21F408950A2609F4A140A69569
:0815E8008FEF811D811D0895A4
:1015F00057FD9058440F551F59F05F3F71F04795C4
:10160000880F97FB991F61F09F3F79F087950895A8
:10161000121613061406551FF2CF4695F1DF08C0C7
:10162000161617061806991FF1CF869571056105E4
:04163000089408957D
:1016340097B1906397B9662321F098B1906398B9F4
:1016440003C098B19F7C98B997B19F7C97B98130BA
:1016540041F018F0823049F0089588E48093B8008E
:10166400089588E18093B80008958CE08093B800D1
:021674000895D7
:101676000F931F93CF93DF938C01D62F88E70E9499
:101686005E0A80E00E94930BC0E007C0F801EC0FF1
:10169600F11D80810E94930BCF5FCD17B8F30E9496
:0C16A6004D0CDF91CF911F910F91089522
:1016B2008093BB0084E88093BC008091BC008823A7
:1016C200E4F78091B900887F883151F08091B900A8
:1016D200887F803441F08091B900887F90E008953E
:0C16E20080E090E0089580E090E0089522
:1016EE0084EA8093BC008091BC008823E4F780914B
:1016FE00B900887F883051F08091B900887F8031A1
:10170E0041F08091B900887F90E0089580E090E0EC
:08171E00089580E090E00895B9
:101726008093BB0084E88093BC0080EA90E008C008
:10173600019731F48091000184608093000108953F
:0E1746002091BC00222314F0009791F7089523
:10175400CF92DF92EF926B01E82E06C09FEFC91A79
:10176400D90AE90A0E943C02F6018491E7FC8081CF
:0C1774008111F4CFEF90DF90CF9008952A
:101780008093BB0084E88093BC008091BC008823D8
:10179000E4F78091B900887F883229F08091B90000
:0C17A000887F90E0089580E090E00895BC
:1017AC00092E0394000C11F4882352F0BB0F40F463
:1017BC00BF2B11F460FF04C06F5F7F4F8F4F9F4FA3
:0217CC0008957E
:1017CE000E94EA0780910101982F93709093010176
:0617DE0085958595089534
:1017E400EC010E94610C0E94600CCE010E94620C0C
:0617F400CE010E945E0C14
:1017FA001092B90080E28093B80084E08093BC0024
:02180A0008953F
:10180C00982F990F980F892F880F0E94CC09089553
:0E181C005058BB27AA270E9426070C94D60B13
:0E182A000E942F0A6894B1110C942B0C0895A3
:0E18380000240A9416161706180609060895CD
:0E18460000240A9412161306140605060895CF
:0E185400E894BB2766277727CB0197F9089504
:0C18620099231CF491958195910908953B
:0C186E0097F99F6780E870E060E0089543
:0C187A00EE0FFF1F0590F491E02D099483
:0A18860060E080E00E94060C089567
:0A1890000E94D40A08F48FEF0895B7
:08189A0084E98093BC0008956D
:0818A20084E98093BC00089565
:0818AA000E94B7060C94D60B56
:0618B2009FEF80EC089599
:0418B8000C9400008C
:0418BC000E947F0007
:0218C000089589
:0218C200089587
:0218C400089585
:1018C6004037A01BD00DE8067403BA01DD006E0098
:1018D60037001B000D0008004037A01BD00DE8069E
:0E18E6007403DD006E0037001B000D000800CB
:0118F40001F2
:00000001FF
